{
	"contracts/FreelancePayment.sol": {
		"FreelancePayment": {
			"abi": [
				{
					"inputs": [
						{
							"internalType": "address",
							"name": "_cUSD",
							"type": "address"
						}
					],
					"stateMutability": "nonpayable",
					"type": "constructor"
				},
				{
					"anonymous": false,
					"inputs": [
						{
							"indexed": true,
							"internalType": "uint256",
							"name": "id",
							"type": "uint256"
						},
						{
							"indexed": false,
							"internalType": "uint256",
							"name": "amount",
							"type": "uint256"
						}
					],
					"name": "InvoiceClaimed",
					"type": "event"
				},
				{
					"anonymous": false,
					"inputs": [
						{
							"indexed": true,
							"internalType": "uint256",
							"name": "id",
							"type": "uint256"
						},
						{
							"indexed": false,
							"internalType": "address",
							"name": "freelancer",
							"type": "address"
						},
						{
							"indexed": false,
							"internalType": "address",
							"name": "client",
							"type": "address"
						},
						{
							"indexed": false,
							"internalType": "uint256",
							"name": "amount",
							"type": "uint256"
						}
					],
					"name": "InvoiceCreated",
					"type": "event"
				},
				{
					"anonymous": false,
					"inputs": [
						{
							"indexed": true,
							"internalType": "uint256",
							"name": "id",
							"type": "uint256"
						}
					],
					"name": "InvoicePaid",
					"type": "event"
				},
				{
					"inputs": [],
					"name": "cUSD",
					"outputs": [
						{
							"internalType": "contract IERC20",
							"name": "",
							"type": "address"
						}
					],
					"stateMutability": "view",
					"type": "function"
				},
				{
					"inputs": [
						{
							"internalType": "uint256",
							"name": "_id",
							"type": "uint256"
						}
					],
					"name": "claimInvoice",
					"outputs": [],
					"stateMutability": "nonpayable",
					"type": "function"
				},
				{
					"inputs": [
						{
							"internalType": "address",
							"name": "_client",
							"type": "address"
						},
						{
							"internalType": "uint256",
							"name": "_amount",
							"type": "uint256"
						}
					],
					"name": "createInvoice",
					"outputs": [],
					"stateMutability": "nonpayable",
					"type": "function"
				},
				{
					"inputs": [
						{
							"internalType": "uint256",
							"name": "_id",
							"type": "uint256"
						}
					],
					"name": "getInvoice",
					"outputs": [
						{
							"components": [
								{
									"internalType": "address",
									"name": "freelancer",
									"type": "address"
								},
								{
									"internalType": "address",
									"name": "client",
									"type": "address"
								},
								{
									"internalType": "uint256",
									"name": "amount",
									"type": "uint256"
								},
								{
									"internalType": "bool",
									"name": "paid",
									"type": "bool"
								},
								{
									"internalType": "bool",
									"name": "claimed",
									"type": "bool"
								}
							],
							"internalType": "struct FreelancePayment.Invoice",
							"name": "",
							"type": "tuple"
						}
					],
					"stateMutability": "view",
					"type": "function"
				},
				{
					"inputs": [],
					"name": "invoiceCount",
					"outputs": [
						{
							"internalType": "uint256",
							"name": "",
							"type": "uint256"
						}
					],
					"stateMutability": "view",
					"type": "function"
				},
				{
					"inputs": [
						{
							"internalType": "uint256",
							"name": "",
							"type": "uint256"
						}
					],
					"name": "invoices",
					"outputs": [
						{
							"internalType": "address",
							"name": "freelancer",
							"type": "address"
						},
						{
							"internalType": "address",
							"name": "client",
							"type": "address"
						},
						{
							"internalType": "uint256",
							"name": "amount",
							"type": "uint256"
						},
						{
							"internalType": "bool",
							"name": "paid",
							"type": "bool"
						},
						{
							"internalType": "bool",
							"name": "claimed",
							"type": "bool"
						}
					],
					"stateMutability": "view",
					"type": "function"
				},
				{
					"inputs": [
						{
							"internalType": "uint256",
							"name": "_id",
							"type": "uint256"
						}
					],
					"name": "payInvoice",
					"outputs": [],
					"stateMutability": "nonpayable",
					"type": "function"
				}
			],
			"devdoc": {
				"kind": "dev",
				"methods": {},
				"version": 1
			},
			"evm": {
				"assembly": "    /* \"contracts/FreelancePayment.sol\":121:1971  contract FreelancePayment {... */\n  mstore(0x40, 0xa0)\n    /* \"contracts/FreelancePayment.sol\":638:704  constructor(address _cUSD) {... */\n  callvalue\n  dup1\n  iszero\n  tag_1\n  jumpi\n  revert(0x00, 0x00)\ntag_1:\n  pop\n  mload(0x40)\n  sub(codesize, bytecodeSize)\n  dup1\n  bytecodeSize\n  dup4\n  codecopy\n  dup2\n  dup2\n  add\n  0x40\n  mstore\n  dup2\n  add\n  swap1\n  tag_2\n  swap2\n  swap1\n  tag_3\n  jump\t// in\ntag_2:\n    /* \"contracts/FreelancePayment.sol\":690:695  _cUSD */\n  dup1\n    /* \"contracts/FreelancePayment.sol\":676:696  cUSD = IERC20(_cUSD) */\n  0xffffffffffffffffffffffffffffffffffffffff\n  and\n  0x80\n  dup2\n  0xffffffffffffffffffffffffffffffffffffffff\n  and\n  dup2\n  mstore\n  pop\n  pop\n    /* \"contracts/FreelancePayment.sol\":638:704  constructor(address _cUSD) {... */\n  pop\n    /* \"contracts/FreelancePayment.sol\":121:1971  contract FreelancePayment {... */\n  jump(tag_6)\n    /* \"#utility.yul\":88:205   */\ntag_8:\n    /* \"#utility.yul\":197:198   */\n  0x00\n    /* \"#utility.yul\":194:195   */\n  0x00\n    /* \"#utility.yul\":187:199   */\n  revert\n    /* \"#utility.yul\":334:460   */\ntag_10:\n    /* \"#utility.yul\":371:378   */\n  0x00\n    /* \"#utility.yul\":411:453   */\n  0xffffffffffffffffffffffffffffffffffffffff\n    /* \"#utility.yul\":404:409   */\n  dup3\n    /* \"#utility.yul\":400:454   */\n  and\n    /* \"#utility.yul\":389:454   */\n  swap1\n  pop\n    /* \"#utility.yul\":334:460   */\n  swap2\n  swap1\n  pop\n  jump\t// out\n    /* \"#utility.yul\":466:562   */\ntag_11:\n    /* \"#utility.yul\":503:510   */\n  0x00\n    /* \"#utility.yul\":532:556   */\n  tag_20\n    /* \"#utility.yul\":550:555   */\n  dup3\n    /* \"#utility.yul\":532:556   */\n  tag_10\n  jump\t// in\ntag_20:\n    /* \"#utility.yul\":521:556   */\n  swap1\n  pop\n    /* \"#utility.yul\":466:562   */\n  swap2\n  swap1\n  pop\n  jump\t// out\n    /* \"#utility.yul\":568:690   */\ntag_12:\n    /* \"#utility.yul\":641:665   */\n  tag_22\n    /* \"#utility.yul\":659:664   */\n  dup2\n    /* \"#utility.yul\":641:665   */\n  tag_11\n  jump\t// in\ntag_22:\n    /* \"#utility.yul\":634:639   */\n  dup2\n    /* \"#utility.yul\":631:666   */\n  eq\n    /* \"#utility.yul\":621:684   */\n  tag_23\n  jumpi\n    /* \"#utility.yul\":680:681   */\n  0x00\n    /* \"#utility.yul\":677:678   */\n  0x00\n    /* \"#utility.yul\":670:682   */\n  revert\n    /* \"#utility.yul\":621:684   */\ntag_23:\n    /* \"#utility.yul\":568:690   */\n  pop\n  jump\t// out\n    /* \"#utility.yul\":696:839   */\ntag_13:\n    /* \"#utility.yul\":753:758   */\n  0x00\n    /* \"#utility.yul\":784:790   */\n  dup2\n    /* \"#utility.yul\":778:791   */\n  mload\n    /* \"#utility.yul\":769:791   */\n  swap1\n  pop\n    /* \"#utility.yul\":800:833   */\n  tag_25\n    /* \"#utility.yul\":827:832   */\n  dup2\n    /* \"#utility.yul\":800:833   */\n  tag_12\n  jump\t// in\ntag_25:\n    /* \"#utility.yul\":696:839   */\n  swap3\n  swap2\n  pop\n  pop\n  jump\t// out\n    /* \"#utility.yul\":845:1196   */\ntag_3:\n    /* \"#utility.yul\":915:921   */\n  0x00\n    /* \"#utility.yul\":964:966   */\n  0x20\n    /* \"#utility.yul\":952:961   */\n  dup3\n    /* \"#utility.yul\":943:950   */\n  dup5\n    /* \"#utility.yul\":939:962   */\n  sub\n    /* \"#utility.yul\":935:967   */\n  slt\n    /* \"#utility.yul\":932:1051   */\n  iszero\n  tag_27\n  jumpi\n    /* \"#utility.yul\":970:1049   */\n  tag_28\n  tag_8\n  jump\t// in\ntag_28:\n    /* \"#utility.yul\":932:1051   */\ntag_27:\n    /* \"#utility.yul\":1090:1091   */\n  0x00\n    /* \"#utility.yul\":1115:1179   */\n  tag_29\n    /* \"#utility.yul\":1171:1178   */\n  dup5\n    /* \"#utility.yul\":1162:1168   */\n  dup3\n    /* \"#utility.yul\":1151:1160   */\n  dup6\n    /* \"#utility.yul\":1147:1169   */\n  add\n    /* \"#utility.yul\":1115:1179   */\n  tag_13\n  jump\t// in\ntag_29:\n    /* \"#utility.yul\":1105:1179   */\n  swap2\n  pop\n    /* \"#utility.yul\":1061:1189   */\n  pop\n    /* \"#utility.yul\":845:1196   */\n  swap3\n  swap2\n  pop\n  pop\n  jump\t// out\n    /* \"contracts/FreelancePayment.sol\":121:1971  contract FreelancePayment {... */\ntag_6:\n  mload(0x80)\n  codecopy(0x00, dataOffset(sub_0), dataSize(sub_0))\n  0x00\n  assignImmutable(\"0x043ab7193d962ca510e48770a5a13714f4684febe0e5affcfd1eb73cfed1f218\")\n  return(0x00, dataSize(sub_0))\nstop\n\nsub_0: assembly {\n        /* \"contracts/FreelancePayment.sol\":121:1971  contract FreelancePayment {... */\n      mstore(0x40, 0x80)\n      callvalue\n      dup1\n      iszero\n      tag_1\n      jumpi\n      revert(0x00, 0x00)\n    tag_1:\n      pop\n      jumpi(tag_2, lt(calldatasize, 0x04))\n      shr(0xe0, calldataload(0x00))\n      dup1\n      0x4e6d1405\n      gt\n      tag_10\n      jumpi\n      dup1\n      0x4e6d1405\n      eq\n      tag_6\n      jumpi\n      dup1\n      0xac60a6cd\n      eq\n      tag_7\n      jumpi\n      dup1\n      0xb0958532\n      eq\n      tag_8\n      jumpi\n      dup1\n      0xc08b5808\n      eq\n      tag_9\n      jumpi\n      jump(tag_2)\n    tag_10:\n      dup1\n      0x1346f0c4\n      eq\n      tag_3\n      jumpi\n      dup1\n      0x1fccf672\n      eq\n      tag_4\n      jumpi\n      dup1\n      0x3a23cc0a\n      eq\n      tag_5\n      jumpi\n    tag_2:\n      revert(0x00, 0x00)\n        /* \"contracts/FreelancePayment.sol\":394:421  uint256 public invoiceCount */\n    tag_3:\n      tag_11\n      tag_12\n      jump\t// in\n    tag_11:\n      mload(0x40)\n      tag_13\n      swap2\n      swap1\n      tag_14\n      jump\t// in\n    tag_13:\n      mload(0x40)\n      dup1\n      swap2\n      sub\n      swap1\n      return\n        /* \"contracts/FreelancePayment.sol\":154:182  IERC20 public immutable cUSD */\n    tag_4:\n      tag_15\n      tag_16\n      jump\t// in\n    tag_15:\n      mload(0x40)\n      tag_17\n      swap2\n      swap1\n      tag_18\n      jump\t// in\n    tag_17:\n      mload(0x40)\n      dup1\n      swap2\n      sub\n      swap1\n      return\n        /* \"contracts/FreelancePayment.sol\":1857:1968  function getInvoice(uint256 _id) external view returns (Invoice memory) {... */\n    tag_5:\n      tag_19\n      0x04\n      dup1\n      calldatasize\n      sub\n      dup2\n      add\n      swap1\n      tag_20\n      swap2\n      swap1\n      tag_21\n      jump\t// in\n    tag_20:\n      tag_22\n      jump\t// in\n    tag_19:\n      mload(0x40)\n      tag_23\n      swap2\n      swap1\n      tag_24\n      jump\t// in\n    tag_23:\n      mload(0x40)\n      dup1\n      swap2\n      sub\n      swap1\n      return\n        /* \"contracts/FreelancePayment.sol\":344:387  mapping(uint256 => Invoice) public invoices */\n    tag_6:\n      tag_25\n      0x04\n      dup1\n      calldatasize\n      sub\n      dup2\n      add\n      swap1\n      tag_26\n      swap2\n      swap1\n      tag_21\n      jump\t// in\n    tag_26:\n      tag_27\n      jump\t// in\n    tag_25:\n      mload(0x40)\n      tag_28\n      swap6\n      swap5\n      swap4\n      swap3\n      swap2\n      swap1\n      tag_29\n      jump\t// in\n    tag_28:\n      mload(0x40)\n      dup1\n      swap2\n      sub\n      swap1\n      return\n        /* \"contracts/FreelancePayment.sol\":1079:1434  function payInvoice(uint256 _id) external {... */\n    tag_7:\n      tag_30\n      0x04\n      dup1\n      calldatasize\n      sub\n      dup2\n      add\n      swap1\n      tag_31\n      swap2\n      swap1\n      tag_21\n      jump\t// in\n    tag_31:\n      tag_32\n      jump\t// in\n    tag_30:\n      stop\n        /* \"contracts/FreelancePayment.sol\":712:1071  function createInvoice(address _client, uint256 _amount) external {... */\n    tag_8:\n      tag_33\n      0x04\n      dup1\n      calldatasize\n      sub\n      dup2\n      add\n      swap1\n      tag_34\n      swap2\n      swap1\n      tag_35\n      jump\t// in\n    tag_34:\n      tag_36\n      jump\t// in\n    tag_33:\n      stop\n        /* \"contracts/FreelancePayment.sol\":1442:1849  function claimInvoice(uint256 _id) external {... */\n    tag_9:\n      tag_37\n      0x04\n      dup1\n      calldatasize\n      sub\n      dup2\n      add\n      swap1\n      tag_38\n      swap2\n      swap1\n      tag_21\n      jump\t// in\n    tag_38:\n      tag_39\n      jump\t// in\n    tag_37:\n      stop\n        /* \"contracts/FreelancePayment.sol\":394:421  uint256 public invoiceCount */\n    tag_12:\n      sload(0x01)\n      dup2\n      jump\t// out\n        /* \"contracts/FreelancePayment.sol\":154:182  IERC20 public immutable cUSD */\n    tag_16:\n      immutable(\"0x043ab7193d962ca510e48770a5a13714f4684febe0e5affcfd1eb73cfed1f218\")\n      dup2\n      jump\t// out\n        /* \"contracts/FreelancePayment.sol\":1857:1968  function getInvoice(uint256 _id) external view returns (Invoice memory) {... */\n    tag_22:\n        /* \"contracts/FreelancePayment.sol\":1913:1927  Invoice memory */\n      tag_40\n      tag_41\n      jump\t// in\n    tag_40:\n        /* \"contracts/FreelancePayment.sol\":1947:1955  invoices */\n      0x00\n        /* \"contracts/FreelancePayment.sol\":1947:1960  invoices[_id] */\n      0x00\n        /* \"contracts/FreelancePayment.sol\":1956:1959  _id */\n      dup4\n        /* \"contracts/FreelancePayment.sol\":1947:1960  invoices[_id] */\n      dup2\n      mstore\n      0x20\n      add\n      swap1\n      dup2\n      mstore\n      0x20\n      add\n      0x00\n      keccak256\n        /* \"contracts/FreelancePayment.sol\":1940:1960  return invoices[_id] */\n      mload(0x40)\n      dup1\n      0xa0\n      add\n      0x40\n      mstore\n      swap1\n      dup2\n      0x00\n      dup3\n      add\n      0x00\n      swap1\n      sload\n      swap1\n      0x0100\n      exp\n      swap1\n      div\n      0xffffffffffffffffffffffffffffffffffffffff\n      and\n      0xffffffffffffffffffffffffffffffffffffffff\n      and\n      0xffffffffffffffffffffffffffffffffffffffff\n      and\n      dup2\n      mstore\n      0x20\n      add\n      0x01\n      dup3\n      add\n      0x00\n      swap1\n      sload\n      swap1\n      0x0100\n      exp\n      swap1\n      div\n      0xffffffffffffffffffffffffffffffffffffffff\n      and\n      0xffffffffffffffffffffffffffffffffffffffff\n      and\n      0xffffffffffffffffffffffffffffffffffffffff\n      and\n      dup2\n      mstore\n      0x20\n      add\n      0x02\n      dup3\n      add\n      sload\n      dup2\n      mstore\n      0x20\n      add\n      0x03\n      dup3\n      add\n      0x00\n      swap1\n      sload\n      swap1\n      0x0100\n      exp\n      swap1\n      div\n      0xff\n      and\n      iszero\n      iszero\n      iszero\n      iszero\n      dup2\n      mstore\n      0x20\n      add\n      0x03\n      dup3\n      add\n      0x01\n      swap1\n      sload\n      swap1\n      0x0100\n      exp\n      swap1\n      div\n      0xff\n      and\n      iszero\n      iszero\n      iszero\n      iszero\n      dup2\n      mstore\n      pop\n      pop\n      swap1\n      pop\n        /* \"contracts/FreelancePayment.sol\":1857:1968  function getInvoice(uint256 _id) external view returns (Invoice memory) {... */\n      swap2\n      swap1\n      pop\n      jump\t// out\n        /* \"contracts/FreelancePayment.sol\":344:387  mapping(uint256 => Invoice) public invoices */\n    tag_27:\n      mstore(0x20, 0x00)\n      dup1\n      0x00\n      mstore\n      keccak256(0x00, 0x40)\n      0x00\n      swap2\n      pop\n      swap1\n      pop\n      dup1\n      0x00\n      add\n      0x00\n      swap1\n      sload\n      swap1\n      0x0100\n      exp\n      swap1\n      div\n      0xffffffffffffffffffffffffffffffffffffffff\n      and\n      swap1\n      dup1\n      0x01\n      add\n      0x00\n      swap1\n      sload\n      swap1\n      0x0100\n      exp\n      swap1\n      div\n      0xffffffffffffffffffffffffffffffffffffffff\n      and\n      swap1\n      dup1\n      0x02\n      add\n      sload\n      swap1\n      dup1\n      0x03\n      add\n      0x00\n      swap1\n      sload\n      swap1\n      0x0100\n      exp\n      swap1\n      div\n      0xff\n      and\n      swap1\n      dup1\n      0x03\n      add\n      0x01\n      swap1\n      sload\n      swap1\n      0x0100\n      exp\n      swap1\n      div\n      0xff\n      and\n      swap1\n      pop\n      dup6\n      jump\t// out\n        /* \"contracts/FreelancePayment.sol\":1079:1434  function payInvoice(uint256 _id) external {... */\n    tag_32:\n        /* \"contracts/FreelancePayment.sol\":1132:1151  Invoice storage inv */\n      0x00\n        /* \"contracts/FreelancePayment.sol\":1154:1162  invoices */\n      0x00\n        /* \"contracts/FreelancePayment.sol\":1154:1167  invoices[_id] */\n      0x00\n        /* \"contracts/FreelancePayment.sol\":1163:1166  _id */\n      dup4\n        /* \"contracts/FreelancePayment.sol\":1154:1167  invoices[_id] */\n      dup2\n      mstore\n      0x20\n      add\n      swap1\n      dup2\n      mstore\n      0x20\n      add\n      0x00\n      keccak256\n        /* \"contracts/FreelancePayment.sol\":1132:1167  Invoice storage inv = invoices[_id] */\n      swap1\n      pop\n        /* \"contracts/FreelancePayment.sol\":1200:1203  inv */\n      dup1\n        /* \"contracts/FreelancePayment.sol\":1200:1210  inv.client */\n      0x01\n      add\n      0x00\n      swap1\n      sload\n      swap1\n      0x0100\n      exp\n      swap1\n      div\n      0xffffffffffffffffffffffffffffffffffffffff\n      and\n        /* \"contracts/FreelancePayment.sol\":1186:1210  msg.sender == inv.client */\n      0xffffffffffffffffffffffffffffffffffffffff\n      and\n        /* \"contracts/FreelancePayment.sol\":1186:1196  msg.sender */\n      caller\n        /* \"contracts/FreelancePayment.sol\":1186:1210  msg.sender == inv.client */\n      0xffffffffffffffffffffffffffffffffffffffff\n      and\n      eq\n        /* \"contracts/FreelancePayment.sol\":1178:1226  require(msg.sender == inv.client, \"Only client\") */\n      tag_44\n      jumpi\n      mload(0x40)\n      0x08c379a000000000000000000000000000000000000000000000000000000000\n      dup2\n      mstore\n      0x04\n      add\n      tag_45\n      swap1\n      tag_46\n      jump\t// in\n    tag_45:\n      mload(0x40)\n      dup1\n      swap2\n      sub\n      swap1\n      revert\n    tag_44:\n        /* \"contracts/FreelancePayment.sol\":1246:1249  inv */\n      dup1\n        /* \"contracts/FreelancePayment.sol\":1246:1254  inv.paid */\n      0x03\n      add\n      0x00\n      swap1\n      sload\n      swap1\n      0x0100\n      exp\n      swap1\n      div\n      0xff\n      and\n        /* \"contracts/FreelancePayment.sol\":1245:1254  !inv.paid */\n      iszero\n        /* \"contracts/FreelancePayment.sol\":1237:1271  require(!inv.paid, \"Already paid\") */\n      tag_47\n      jumpi\n      mload(0x40)\n      0x08c379a000000000000000000000000000000000000000000000000000000000\n      dup2\n      mstore\n      0x04\n      add\n      tag_48\n      swap1\n      tag_49\n      jump\t// in\n    tag_48:\n      mload(0x40)\n      dup1\n      swap2\n      sub\n      swap1\n      revert\n    tag_47:\n        /* \"contracts/FreelancePayment.sol\":1292:1296  cUSD */\n      immutable(\"0x043ab7193d962ca510e48770a5a13714f4684febe0e5affcfd1eb73cfed1f218\")\n        /* \"contracts/FreelancePayment.sol\":1292:1309  cUSD.transferFrom */\n      0xffffffffffffffffffffffffffffffffffffffff\n      and\n      0x23b872dd\n        /* \"contracts/FreelancePayment.sol\":1310:1320  msg.sender */\n      caller\n        /* \"contracts/FreelancePayment.sol\":1330:1334  this */\n      address\n        /* \"contracts/FreelancePayment.sol\":1337:1340  inv */\n      dup5\n        /* \"contracts/FreelancePayment.sol\":1337:1347  inv.amount */\n      0x02\n      add\n      sload\n        /* \"contracts/FreelancePayment.sol\":1292:1348  cUSD.transferFrom(msg.sender, address(this), inv.amount) */\n      mload(0x40)\n      dup5\n      0xffffffff\n      and\n      0xe0\n      shl\n      dup2\n      mstore\n      0x04\n      add\n      tag_50\n      swap4\n      swap3\n      swap2\n      swap1\n      tag_51\n      jump\t// in\n    tag_50:\n      0x20\n      mload(0x40)\n      dup1\n      dup4\n      sub\n      dup2\n      0x00\n      dup8\n      gas\n      call\n      iszero\n      dup1\n      iszero\n      tag_53\n      jumpi\n      returndatacopy(0x00, 0x00, returndatasize)\n      revert(0x00, returndatasize)\n    tag_53:\n      pop\n      pop\n      pop\n      pop\n      mload(0x40)\n      returndatasize\n      not(0x1f)\n      0x1f\n      dup3\n      add\n      and\n      dup3\n      add\n      dup1\n      0x40\n      mstore\n      pop\n      dup2\n      add\n      swap1\n      tag_54\n      swap2\n      swap1\n      tag_55\n      jump\t// in\n    tag_54:\n        /* \"contracts/FreelancePayment.sol\":1284:1368  require(cUSD.transferFrom(msg.sender, address(this), inv.amount), \"Transfer failed\") */\n      tag_56\n      jumpi\n      mload(0x40)\n      0x08c379a000000000000000000000000000000000000000000000000000000000\n      dup2\n      mstore\n      0x04\n      add\n      tag_57\n      swap1\n      tag_58\n      jump\t// in\n    tag_57:\n      mload(0x40)\n      dup1\n      swap2\n      sub\n      swap1\n      revert\n    tag_56:\n        /* \"contracts/FreelancePayment.sol\":1390:1394  true */\n      0x01\n        /* \"contracts/FreelancePayment.sol\":1379:1382  inv */\n      dup2\n        /* \"contracts/FreelancePayment.sol\":1379:1387  inv.paid */\n      0x03\n      add\n      0x00\n        /* \"contracts/FreelancePayment.sol\":1379:1394  inv.paid = true */\n      0x0100\n      exp\n      dup2\n      sload\n      dup2\n      0xff\n      mul\n      not\n      and\n      swap1\n      dup4\n      iszero\n      iszero\n      mul\n      or\n      swap1\n      sstore\n      pop\n        /* \"contracts/FreelancePayment.sol\":1422:1425  _id */\n      dup2\n        /* \"contracts/FreelancePayment.sol\":1410:1426  InvoicePaid(_id) */\n      0x4d6cfd329415806d53db8988cd3c035f681754c229f8d7e5183507deae65cc16\n      mload(0x40)\n      mload(0x40)\n      dup1\n      swap2\n      sub\n      swap1\n      log2\n        /* \"contracts/FreelancePayment.sol\":1121:1434  {... */\n      pop\n        /* \"contracts/FreelancePayment.sol\":1079:1434  function payInvoice(uint256 _id) external {... */\n      pop\n      jump\t// out\n        /* \"contracts/FreelancePayment.sol\":712:1071  function createInvoice(address _client, uint256 _amount) external {... */\n    tag_36:\n        /* \"contracts/FreelancePayment.sol\":816:817  0 */\n      0x00\n        /* \"contracts/FreelancePayment.sol\":797:818  _client != address(0) */\n      0xffffffffffffffffffffffffffffffffffffffff\n      and\n        /* \"contracts/FreelancePayment.sol\":797:804  _client */\n      dup3\n        /* \"contracts/FreelancePayment.sol\":797:818  _client != address(0) */\n      0xffffffffffffffffffffffffffffffffffffffff\n      and\n      sub\n        /* \"contracts/FreelancePayment.sol\":789:837  require(_client != address(0), \"Invalid client\") */\n      tag_60\n      jumpi\n      mload(0x40)\n      0x08c379a000000000000000000000000000000000000000000000000000000000\n      dup2\n      mstore\n      0x04\n      add\n      tag_61\n      swap1\n      tag_62\n      jump\t// in\n    tag_61:\n      mload(0x40)\n      dup1\n      swap2\n      sub\n      swap1\n      revert\n    tag_60:\n        /* \"contracts/FreelancePayment.sol\":866:867  0 */\n      0x00\n        /* \"contracts/FreelancePayment.sol\":856:863  _amount */\n      dup2\n        /* \"contracts/FreelancePayment.sol\":856:867  _amount > 0 */\n      gt\n        /* \"contracts/FreelancePayment.sol\":848:882  require(_amount > 0, \"Amount > 0\") */\n      tag_63\n      jumpi\n      mload(0x40)\n      0x08c379a000000000000000000000000000000000000000000000000000000000\n      dup2\n      mstore\n      0x04\n      add\n      tag_64\n      swap1\n      tag_65\n      jump\t// in\n    tag_64:\n      mload(0x40)\n      dup1\n      swap2\n      sub\n      swap1\n      revert\n    tag_63:\n        /* \"contracts/FreelancePayment.sol\":895:905  uint256 id */\n      0x00\n        /* \"contracts/FreelancePayment.sol\":908:920  invoiceCount */\n      0x01\n      0x00\n        /* \"contracts/FreelancePayment.sol\":908:922  invoiceCount++ */\n      dup2\n      sload\n      dup1\n      swap3\n      swap2\n      swap1\n      tag_66\n      swap1\n      tag_67\n      jump\t// in\n    tag_66:\n      swap2\n      swap1\n      pop\n      sstore\n        /* \"contracts/FreelancePayment.sol\":895:922  uint256 id = invoiceCount++ */\n      swap1\n      pop\n        /* \"contracts/FreelancePayment.sol\":948:999  Invoice(msg.sender, _client, _amount, false, false) */\n      mload(0x40)\n      dup1\n      0xa0\n      add\n      0x40\n      mstore\n      dup1\n        /* \"contracts/FreelancePayment.sol\":956:966  msg.sender */\n      caller\n        /* \"contracts/FreelancePayment.sol\":948:999  Invoice(msg.sender, _client, _amount, false, false) */\n      0xffffffffffffffffffffffffffffffffffffffff\n      and\n      dup2\n      mstore\n      0x20\n      add\n        /* \"contracts/FreelancePayment.sol\":968:975  _client */\n      dup5\n        /* \"contracts/FreelancePayment.sol\":948:999  Invoice(msg.sender, _client, _amount, false, false) */\n      0xffffffffffffffffffffffffffffffffffffffff\n      and\n      dup2\n      mstore\n      0x20\n      add\n        /* \"contracts/FreelancePayment.sol\":977:984  _amount */\n      dup4\n        /* \"contracts/FreelancePayment.sol\":948:999  Invoice(msg.sender, _client, _amount, false, false) */\n      dup2\n      mstore\n      0x20\n      add\n        /* \"contracts/FreelancePayment.sol\":986:991  false */\n      0x00\n        /* \"contracts/FreelancePayment.sol\":948:999  Invoice(msg.sender, _client, _amount, false, false) */\n      iszero\n      iszero\n      dup2\n      mstore\n      0x20\n      add\n        /* \"contracts/FreelancePayment.sol\":993:998  false */\n      0x00\n        /* \"contracts/FreelancePayment.sol\":948:999  Invoice(msg.sender, _client, _amount, false, false) */\n      iszero\n      iszero\n      dup2\n      mstore\n      pop\n        /* \"contracts/FreelancePayment.sol\":933:941  invoices */\n      0x00\n        /* \"contracts/FreelancePayment.sol\":933:945  invoices[id] */\n      0x00\n        /* \"contracts/FreelancePayment.sol\":942:944  id */\n      dup4\n        /* \"contracts/FreelancePayment.sol\":933:945  invoices[id] */\n      dup2\n      mstore\n      0x20\n      add\n      swap1\n      dup2\n      mstore\n      0x20\n      add\n      0x00\n      keccak256\n        /* \"contracts/FreelancePayment.sol\":933:999  invoices[id] = Invoice(msg.sender, _client, _amount, false, false) */\n      0x00\n      dup3\n      add\n      mload\n      dup2\n      0x00\n      add\n      exp(0x0100, 0x00)\n      dup2\n      sload\n      dup2\n      0xffffffffffffffffffffffffffffffffffffffff\n      mul\n      not\n      and\n      swap1\n      dup4\n      0xffffffffffffffffffffffffffffffffffffffff\n      and\n      mul\n      or\n      swap1\n      sstore\n      pop\n      0x20\n      dup3\n      add\n      mload\n      dup2\n      0x01\n      add\n      exp(0x0100, 0x00)\n      dup2\n      sload\n      dup2\n      0xffffffffffffffffffffffffffffffffffffffff\n      mul\n      not\n      and\n      swap1\n      dup4\n      0xffffffffffffffffffffffffffffffffffffffff\n      and\n      mul\n      or\n      swap1\n      sstore\n      pop\n      0x40\n      dup3\n      add\n      mload\n      dup2\n      0x02\n      add\n      sstore\n      0x60\n      dup3\n      add\n      mload\n      dup2\n      0x03\n      add\n      exp(0x0100, 0x00)\n      dup2\n      sload\n      dup2\n      0xff\n      mul\n      not\n      and\n      swap1\n      dup4\n      iszero\n      iszero\n      mul\n      or\n      swap1\n      sstore\n      pop\n      0x80\n      dup3\n      add\n      mload\n      dup2\n      0x03\n      add\n      exp(0x0100, 0x01)\n      dup2\n      sload\n      dup2\n      0xff\n      mul\n      not\n      and\n      swap1\n      dup4\n      iszero\n      iszero\n      mul\n      or\n      swap1\n      sstore\n      pop\n      swap1\n      pop\n      pop\n        /* \"contracts/FreelancePayment.sol\":1030:1032  id */\n      dup1\n        /* \"contracts/FreelancePayment.sol\":1015:1063  InvoiceCreated(id, msg.sender, _client, _amount) */\n      0x88721abb1d35cff296c5d462601d6bdfed57e9493f8c361d2bcc24241a2ebfec\n        /* \"contracts/FreelancePayment.sol\":1034:1044  msg.sender */\n      caller\n        /* \"contracts/FreelancePayment.sol\":1046:1053  _client */\n      dup6\n        /* \"contracts/FreelancePayment.sol\":1055:1062  _amount */\n      dup6\n        /* \"contracts/FreelancePayment.sol\":1015:1063  InvoiceCreated(id, msg.sender, _client, _amount) */\n      mload(0x40)\n      tag_68\n      swap4\n      swap3\n      swap2\n      swap1\n      tag_51\n      jump\t// in\n    tag_68:\n      mload(0x40)\n      dup1\n      swap2\n      sub\n      swap1\n      log2\n        /* \"contracts/FreelancePayment.sol\":778:1071  {... */\n      pop\n        /* \"contracts/FreelancePayment.sol\":712:1071  function createInvoice(address _client, uint256 _amount) external {... */\n      pop\n      pop\n      jump\t// out\n        /* \"contracts/FreelancePayment.sol\":1442:1849  function claimInvoice(uint256 _id) external {... */\n    tag_39:\n        /* \"contracts/FreelancePayment.sol\":1497:1516  Invoice storage inv */\n      0x00\n        /* \"contracts/FreelancePayment.sol\":1519:1527  invoices */\n      0x00\n        /* \"contracts/FreelancePayment.sol\":1519:1532  invoices[_id] */\n      0x00\n        /* \"contracts/FreelancePayment.sol\":1528:1531  _id */\n      dup4\n        /* \"contracts/FreelancePayment.sol\":1519:1532  invoices[_id] */\n      dup2\n      mstore\n      0x20\n      add\n      swap1\n      dup2\n      mstore\n      0x20\n      add\n      0x00\n      keccak256\n        /* \"contracts/FreelancePayment.sol\":1497:1532  Invoice storage inv = invoices[_id] */\n      swap1\n      pop\n        /* \"contracts/FreelancePayment.sol\":1565:1568  inv */\n      dup1\n        /* \"contracts/FreelancePayment.sol\":1565:1579  inv.freelancer */\n      0x00\n      add\n      0x00\n      swap1\n      sload\n      swap1\n      0x0100\n      exp\n      swap1\n      div\n      0xffffffffffffffffffffffffffffffffffffffff\n      and\n        /* \"contracts/FreelancePayment.sol\":1551:1579  msg.sender == inv.freelancer */\n      0xffffffffffffffffffffffffffffffffffffffff\n      and\n        /* \"contracts/FreelancePayment.sol\":1551:1561  msg.sender */\n      caller\n        /* \"contracts/FreelancePayment.sol\":1551:1579  msg.sender == inv.freelancer */\n      0xffffffffffffffffffffffffffffffffffffffff\n      and\n      eq\n        /* \"contracts/FreelancePayment.sol\":1543:1599  require(msg.sender == inv.freelancer, \"Only freelancer\") */\n      tag_70\n      jumpi\n      mload(0x40)\n      0x08c379a000000000000000000000000000000000000000000000000000000000\n      dup2\n      mstore\n      0x04\n      add\n      tag_71\n      swap1\n      tag_72\n      jump\t// in\n    tag_71:\n      mload(0x40)\n      dup1\n      swap2\n      sub\n      swap1\n      revert\n    tag_70:\n        /* \"contracts/FreelancePayment.sol\":1618:1621  inv */\n      dup1\n        /* \"contracts/FreelancePayment.sol\":1618:1626  inv.paid */\n      0x03\n      add\n      0x00\n      swap1\n      sload\n      swap1\n      0x0100\n      exp\n      swap1\n      div\n      0xff\n      and\n        /* \"contracts/FreelancePayment.sol\":1610:1639  require(inv.paid, \"Not paid\") */\n      tag_73\n      jumpi\n      mload(0x40)\n      0x08c379a000000000000000000000000000000000000000000000000000000000\n      dup2\n      mstore\n      0x04\n      add\n      tag_74\n      swap1\n      tag_75\n      jump\t// in\n    tag_74:\n      mload(0x40)\n      dup1\n      swap2\n      sub\n      swap1\n      revert\n    tag_73:\n        /* \"contracts/FreelancePayment.sol\":1659:1662  inv */\n      dup1\n        /* \"contracts/FreelancePayment.sol\":1659:1670  inv.claimed */\n      0x03\n      add\n      0x01\n      swap1\n      sload\n      swap1\n      0x0100\n      exp\n      swap1\n      div\n      0xff\n      and\n        /* \"contracts/FreelancePayment.sol\":1658:1670  !inv.claimed */\n      iszero\n        /* \"contracts/FreelancePayment.sol\":1650:1690  require(!inv.claimed, \"Already claimed\") */\n      tag_76\n      jumpi\n      mload(0x40)\n      0x08c379a000000000000000000000000000000000000000000000000000000000\n      dup2\n      mstore\n      0x04\n      add\n      tag_77\n      swap1\n      tag_78\n      jump\t// in\n    tag_77:\n      mload(0x40)\n      dup1\n      swap2\n      sub\n      swap1\n      revert\n    tag_76:\n        /* \"contracts/FreelancePayment.sol\":1717:1721  true */\n      0x01\n        /* \"contracts/FreelancePayment.sol\":1703:1706  inv */\n      dup2\n        /* \"contracts/FreelancePayment.sol\":1703:1714  inv.claimed */\n      0x03\n      add\n      0x01\n        /* \"contracts/FreelancePayment.sol\":1703:1721  inv.claimed = true */\n      0x0100\n      exp\n      dup2\n      sload\n      dup2\n      0xff\n      mul\n      not\n      and\n      swap1\n      dup4\n      iszero\n      iszero\n      mul\n      or\n      swap1\n      sstore\n      pop\n        /* \"contracts/FreelancePayment.sol\":1740:1744  cUSD */\n      immutable(\"0x043ab7193d962ca510e48770a5a13714f4684febe0e5affcfd1eb73cfed1f218\")\n        /* \"contracts/FreelancePayment.sol\":1740:1753  cUSD.transfer */\n      0xffffffffffffffffffffffffffffffffffffffff\n      and\n      0xa9059cbb\n        /* \"contracts/FreelancePayment.sol\":1754:1764  msg.sender */\n      caller\n        /* \"contracts/FreelancePayment.sol\":1766:1769  inv */\n      dup4\n        /* \"contracts/FreelancePayment.sol\":1766:1776  inv.amount */\n      0x02\n      add\n      sload\n        /* \"contracts/FreelancePayment.sol\":1740:1777  cUSD.transfer(msg.sender, inv.amount) */\n      mload(0x40)\n      dup4\n      0xffffffff\n      and\n      0xe0\n      shl\n      dup2\n      mstore\n      0x04\n      add\n      tag_79\n      swap3\n      swap2\n      swap1\n      tag_80\n      jump\t// in\n    tag_79:\n      0x20\n      mload(0x40)\n      dup1\n      dup4\n      sub\n      dup2\n      0x00\n      dup8\n      gas\n      call\n      iszero\n      dup1\n      iszero\n      tag_82\n      jumpi\n      returndatacopy(0x00, 0x00, returndatasize)\n      revert(0x00, returndatasize)\n    tag_82:\n      pop\n      pop\n      pop\n      pop\n      mload(0x40)\n      returndatasize\n      not(0x1f)\n      0x1f\n      dup3\n      add\n      and\n      dup3\n      add\n      dup1\n      0x40\n      mstore\n      pop\n      dup2\n      add\n      swap1\n      tag_83\n      swap2\n      swap1\n      tag_55\n      jump\t// in\n    tag_83:\n        /* \"contracts/FreelancePayment.sol\":1732:1794  require(cUSD.transfer(msg.sender, inv.amount), \"Claim failed\") */\n      tag_84\n      jumpi\n      mload(0x40)\n      0x08c379a000000000000000000000000000000000000000000000000000000000\n      dup2\n      mstore\n      0x04\n      add\n      tag_85\n      swap1\n      tag_86\n      jump\t// in\n    tag_85:\n      mload(0x40)\n      dup1\n      swap2\n      sub\n      swap1\n      revert\n    tag_84:\n        /* \"contracts/FreelancePayment.sol\":1825:1828  _id */\n      dup2\n        /* \"contracts/FreelancePayment.sol\":1810:1841  InvoiceClaimed(_id, inv.amount) */\n      0x92e5f75781876b7af9b7b392dfdbdc58e0807f7d3d506b918eb86eae87da9f92\n        /* \"contracts/FreelancePayment.sol\":1830:1833  inv */\n      dup3\n        /* \"contracts/FreelancePayment.sol\":1830:1840  inv.amount */\n      0x02\n      add\n      sload\n        /* \"contracts/FreelancePayment.sol\":1810:1841  InvoiceClaimed(_id, inv.amount) */\n      mload(0x40)\n      tag_87\n      swap2\n      swap1\n      tag_14\n      jump\t// in\n    tag_87:\n      mload(0x40)\n      dup1\n      swap2\n      sub\n      swap1\n      log2\n        /* \"contracts/FreelancePayment.sol\":1486:1849  {... */\n      pop\n        /* \"contracts/FreelancePayment.sol\":1442:1849  function claimInvoice(uint256 _id) external {... */\n      pop\n      jump\t// out\n    tag_41:\n      mload(0x40)\n      dup1\n      0xa0\n      add\n      0x40\n      mstore\n      dup1\n      and(0xffffffffffffffffffffffffffffffffffffffff, 0x00)\n      dup2\n      mstore\n      0x20\n      add\n      and(0xffffffffffffffffffffffffffffffffffffffff, 0x00)\n      dup2\n      mstore\n      0x20\n      add\n      0x00\n      dup2\n      mstore\n      0x20\n      add\n      iszero(iszero(0x00))\n      dup2\n      mstore\n      0x20\n      add\n      iszero(iszero(0x00))\n      dup2\n      mstore\n      pop\n      swap1\n      jump\t// out\n        /* \"#utility.yul\":7:84   */\n    tag_88:\n        /* \"#utility.yul\":44:51   */\n      0x00\n        /* \"#utility.yul\":73:78   */\n      dup2\n        /* \"#utility.yul\":62:78   */\n      swap1\n      pop\n        /* \"#utility.yul\":7:84   */\n      swap2\n      swap1\n      pop\n      jump\t// out\n        /* \"#utility.yul\":90:208   */\n    tag_89:\n        /* \"#utility.yul\":177:201   */\n      tag_136\n        /* \"#utility.yul\":195:200   */\n      dup2\n        /* \"#utility.yul\":177:201   */\n      tag_88\n      jump\t// in\n    tag_136:\n        /* \"#utility.yul\":172:175   */\n      dup3\n        /* \"#utility.yul\":165:202   */\n      mstore\n        /* \"#utility.yul\":90:208   */\n      pop\n      pop\n      jump\t// out\n        /* \"#utility.yul\":214:436   */\n    tag_14:\n        /* \"#utility.yul\":307:311   */\n      0x00\n        /* \"#utility.yul\":345:347   */\n      0x20\n        /* \"#utility.yul\":334:343   */\n      dup3\n        /* \"#utility.yul\":330:348   */\n      add\n        /* \"#utility.yul\":322:348   */\n      swap1\n      pop\n        /* \"#utility.yul\":358:429   */\n      tag_138\n        /* \"#utility.yul\":426:427   */\n      0x00\n        /* \"#utility.yul\":415:424   */\n      dup4\n        /* \"#utility.yul\":411:428   */\n      add\n        /* \"#utility.yul\":402:408   */\n      dup5\n        /* \"#utility.yul\":358:429   */\n      tag_89\n      jump\t// in\n    tag_138:\n        /* \"#utility.yul\":214:436   */\n      swap3\n      swap2\n      pop\n      pop\n      jump\t// out\n        /* \"#utility.yul\":442:568   */\n    tag_90:\n        /* \"#utility.yul\":479:486   */\n      0x00\n        /* \"#utility.yul\":519:561   */\n      0xffffffffffffffffffffffffffffffffffffffff\n        /* \"#utility.yul\":512:517   */\n      dup3\n        /* \"#utility.yul\":508:562   */\n      and\n        /* \"#utility.yul\":497:562   */\n      swap1\n      pop\n        /* \"#utility.yul\":442:568   */\n      swap2\n      swap1\n      pop\n      jump\t// out\n        /* \"#utility.yul\":574:634   */\n    tag_91:\n        /* \"#utility.yul\":602:605   */\n      0x00\n        /* \"#utility.yul\":623:628   */\n      dup2\n        /* \"#utility.yul\":616:628   */\n      swap1\n      pop\n        /* \"#utility.yul\":574:634   */\n      swap2\n      swap1\n      pop\n      jump\t// out\n        /* \"#utility.yul\":640:782   */\n    tag_92:\n        /* \"#utility.yul\":690:699   */\n      0x00\n        /* \"#utility.yul\":723:776   */\n      tag_142\n        /* \"#utility.yul\":741:775   */\n      tag_143\n        /* \"#utility.yul\":750:774   */\n      tag_144\n        /* \"#utility.yul\":768:773   */\n      dup5\n        /* \"#utility.yul\":750:774   */\n      tag_90\n      jump\t// in\n    tag_144:\n        /* \"#utility.yul\":741:775   */\n      tag_91\n      jump\t// in\n    tag_143:\n        /* \"#utility.yul\":723:776   */\n      tag_90\n      jump\t// in\n    tag_142:\n        /* \"#utility.yul\":710:776   */\n      swap1\n      pop\n        /* \"#utility.yul\":640:782   */\n      swap2\n      swap1\n      pop\n      jump\t// out\n        /* \"#utility.yul\":788:914   */\n    tag_93:\n        /* \"#utility.yul\":838:847   */\n      0x00\n        /* \"#utility.yul\":871:908   */\n      tag_146\n        /* \"#utility.yul\":902:907   */\n      dup3\n        /* \"#utility.yul\":871:908   */\n      tag_92\n      jump\t// in\n    tag_146:\n        /* \"#utility.yul\":858:908   */\n      swap1\n      pop\n        /* \"#utility.yul\":788:914   */\n      swap2\n      swap1\n      pop\n      jump\t// out\n        /* \"#utility.yul\":920:1059   */\n    tag_94:\n        /* \"#utility.yul\":983:992   */\n      0x00\n        /* \"#utility.yul\":1016:1053   */\n      tag_148\n        /* \"#utility.yul\":1047:1052   */\n      dup3\n        /* \"#utility.yul\":1016:1053   */\n      tag_93\n      jump\t// in\n    tag_148:\n        /* \"#utility.yul\":1003:1053   */\n      swap1\n      pop\n        /* \"#utility.yul\":920:1059   */\n      swap2\n      swap1\n      pop\n      jump\t// out\n        /* \"#utility.yul\":1065:1222   */\n    tag_95:\n        /* \"#utility.yul\":1165:1215   */\n      tag_150\n        /* \"#utility.yul\":1209:1214   */\n      dup2\n        /* \"#utility.yul\":1165:1215   */\n      tag_94\n      jump\t// in\n    tag_150:\n        /* \"#utility.yul\":1160:1163   */\n      dup3\n        /* \"#utility.yul\":1153:1216   */\n      mstore\n        /* \"#utility.yul\":1065:1222   */\n      pop\n      pop\n      jump\t// out\n        /* \"#utility.yul\":1228:1476   */\n    tag_18:\n        /* \"#utility.yul\":1334:1338   */\n      0x00\n        /* \"#utility.yul\":1372:1374   */\n      0x20\n        /* \"#utility.yul\":1361:1370   */\n      dup3\n        /* \"#utility.yul\":1357:1375   */\n      add\n        /* \"#utility.yul\":1349:1375   */\n      swap1\n      pop\n        /* \"#utility.yul\":1385:1469   */\n      tag_152\n        /* \"#utility.yul\":1466:1467   */\n      0x00\n        /* \"#utility.yul\":1455:1464   */\n      dup4\n        /* \"#utility.yul\":1451:1468   */\n      add\n        /* \"#utility.yul\":1442:1448   */\n      dup5\n        /* \"#utility.yul\":1385:1469   */\n      tag_95\n      jump\t// in\n    tag_152:\n        /* \"#utility.yul\":1228:1476   */\n      swap3\n      swap2\n      pop\n      pop\n      jump\t// out\n        /* \"#utility.yul\":1563:1680   */\n    tag_97:\n        /* \"#utility.yul\":1672:1673   */\n      0x00\n        /* \"#utility.yul\":1669:1670   */\n      0x00\n        /* \"#utility.yul\":1662:1674   */\n      revert\n        /* \"#utility.yul\":1809:1931   */\n    tag_99:\n        /* \"#utility.yul\":1882:1906   */\n      tag_157\n        /* \"#utility.yul\":1900:1905   */\n      dup2\n        /* \"#utility.yul\":1882:1906   */\n      tag_88\n      jump\t// in\n    tag_157:\n        /* \"#utility.yul\":1875:1880   */\n      dup2\n        /* \"#utility.yul\":1872:1907   */\n      eq\n        /* \"#utility.yul\":1862:1925   */\n      tag_158\n      jumpi\n        /* \"#utility.yul\":1921:1922   */\n      0x00\n        /* \"#utility.yul\":1918:1919   */\n      0x00\n        /* \"#utility.yul\":1911:1923   */\n      revert\n        /* \"#utility.yul\":1862:1925   */\n    tag_158:\n        /* \"#utility.yul\":1809:1931   */\n      pop\n      jump\t// out\n        /* \"#utility.yul\":1937:2076   */\n    tag_100:\n        /* \"#utility.yul\":1983:1988   */\n      0x00\n        /* \"#utility.yul\":2021:2027   */\n      dup2\n        /* \"#utility.yul\":2008:2028   */\n      calldataload\n        /* \"#utility.yul\":1999:2028   */\n      swap1\n      pop\n        /* \"#utility.yul\":2037:2070   */\n      tag_160\n        /* \"#utility.yul\":2064:2069   */\n      dup2\n        /* \"#utility.yul\":2037:2070   */\n      tag_99\n      jump\t// in\n    tag_160:\n        /* \"#utility.yul\":1937:2076   */\n      swap3\n      swap2\n      pop\n      pop\n      jump\t// out\n        /* \"#utility.yul\":2082:2411   */\n    tag_21:\n        /* \"#utility.yul\":2141:2147   */\n      0x00\n        /* \"#utility.yul\":2190:2192   */\n      0x20\n        /* \"#utility.yul\":2178:2187   */\n      dup3\n        /* \"#utility.yul\":2169:2176   */\n      dup5\n        /* \"#utility.yul\":2165:2188   */\n      sub\n        /* \"#utility.yul\":2161:2193   */\n      slt\n        /* \"#utility.yul\":2158:2277   */\n      iszero\n      tag_162\n      jumpi\n        /* \"#utility.yul\":2196:2275   */\n      tag_163\n      tag_97\n      jump\t// in\n    tag_163:\n        /* \"#utility.yul\":2158:2277   */\n    tag_162:\n        /* \"#utility.yul\":2316:2317   */\n      0x00\n        /* \"#utility.yul\":2341:2394   */\n      tag_164\n        /* \"#utility.yul\":2386:2393   */\n      dup5\n        /* \"#utility.yul\":2377:2383   */\n      dup3\n        /* \"#utility.yul\":2366:2375   */\n      dup6\n        /* \"#utility.yul\":2362:2384   */\n      add\n        /* \"#utility.yul\":2341:2394   */\n      tag_100\n      jump\t// in\n    tag_164:\n        /* \"#utility.yul\":2331:2394   */\n      swap2\n      pop\n        /* \"#utility.yul\":2287:2404   */\n      pop\n        /* \"#utility.yul\":2082:2411   */\n      swap3\n      swap2\n      pop\n      pop\n      jump\t// out\n        /* \"#utility.yul\":2417:2513   */\n    tag_101:\n        /* \"#utility.yul\":2454:2461   */\n      0x00\n        /* \"#utility.yul\":2483:2507   */\n      tag_166\n        /* \"#utility.yul\":2501:2506   */\n      dup3\n        /* \"#utility.yul\":2483:2507   */\n      tag_90\n      jump\t// in\n    tag_166:\n        /* \"#utility.yul\":2472:2507   */\n      swap1\n      pop\n        /* \"#utility.yul\":2417:2513   */\n      swap2\n      swap1\n      pop\n      jump\t// out\n        /* \"#utility.yul\":2519:2627   */\n    tag_102:\n        /* \"#utility.yul\":2596:2620   */\n      tag_168\n        /* \"#utility.yul\":2614:2619   */\n      dup2\n        /* \"#utility.yul\":2596:2620   */\n      tag_101\n      jump\t// in\n    tag_168:\n        /* \"#utility.yul\":2591:2594   */\n      dup3\n        /* \"#utility.yul\":2584:2621   */\n      mstore\n        /* \"#utility.yul\":2519:2627   */\n      pop\n      pop\n      jump\t// out\n        /* \"#utility.yul\":2633:2741   */\n    tag_103:\n        /* \"#utility.yul\":2710:2734   */\n      tag_170\n        /* \"#utility.yul\":2728:2733   */\n      dup2\n        /* \"#utility.yul\":2710:2734   */\n      tag_88\n      jump\t// in\n    tag_170:\n        /* \"#utility.yul\":2705:2708   */\n      dup3\n        /* \"#utility.yul\":2698:2735   */\n      mstore\n        /* \"#utility.yul\":2633:2741   */\n      pop\n      pop\n      jump\t// out\n        /* \"#utility.yul\":2747:2837   */\n    tag_104:\n        /* \"#utility.yul\":2781:2788   */\n      0x00\n        /* \"#utility.yul\":2824:2829   */\n      dup2\n        /* \"#utility.yul\":2817:2830   */\n      iszero\n        /* \"#utility.yul\":2810:2831   */\n      iszero\n        /* \"#utility.yul\":2799:2831   */\n      swap1\n      pop\n        /* \"#utility.yul\":2747:2837   */\n      swap2\n      swap1\n      pop\n      jump\t// out\n        /* \"#utility.yul\":2843:2942   */\n    tag_105:\n        /* \"#utility.yul\":2914:2935   */\n      tag_173\n        /* \"#utility.yul\":2929:2934   */\n      dup2\n        /* \"#utility.yul\":2914:2935   */\n      tag_104\n      jump\t// in\n    tag_173:\n        /* \"#utility.yul\":2909:2912   */\n      dup3\n        /* \"#utility.yul\":2902:2936   */\n      mstore\n        /* \"#utility.yul\":2843:2942   */\n      pop\n      pop\n      jump\t// out\n        /* \"#utility.yul\":3022:4048   */\n    tag_106:\n        /* \"#utility.yul\":3165:3169   */\n      0xa0\n        /* \"#utility.yul\":3160:3163   */\n      dup3\n        /* \"#utility.yul\":3156:3170   */\n      add\n        /* \"#utility.yul\":3258:3262   */\n      0x00\n        /* \"#utility.yul\":3251:3256   */\n      dup3\n        /* \"#utility.yul\":3247:3263   */\n      add\n        /* \"#utility.yul\":3241:3264   */\n      mload\n        /* \"#utility.yul\":3277:3340   */\n      tag_175\n        /* \"#utility.yul\":3334:3338   */\n      0x00\n        /* \"#utility.yul\":3329:3332   */\n      dup6\n        /* \"#utility.yul\":3325:3339   */\n      add\n        /* \"#utility.yul\":3311:3323   */\n      dup3\n        /* \"#utility.yul\":3277:3340   */\n      tag_102\n      jump\t// in\n    tag_175:\n        /* \"#utility.yul\":3180:3350   */\n      pop\n        /* \"#utility.yul\":3434:3438   */\n      0x20\n        /* \"#utility.yul\":3427:3432   */\n      dup3\n        /* \"#utility.yul\":3423:3439   */\n      add\n        /* \"#utility.yul\":3417:3440   */\n      mload\n        /* \"#utility.yul\":3453:3516   */\n      tag_176\n        /* \"#utility.yul\":3510:3514   */\n      0x20\n        /* \"#utility.yul\":3505:3508   */\n      dup6\n        /* \"#utility.yul\":3501:3515   */\n      add\n        /* \"#utility.yul\":3487:3499   */\n      dup3\n        /* \"#utility.yul\":3453:3516   */\n      tag_102\n      jump\t// in\n    tag_176:\n        /* \"#utility.yul\":3360:3526   */\n      pop\n        /* \"#utility.yul\":3610:3614   */\n      0x40\n        /* \"#utility.yul\":3603:3608   */\n      dup3\n        /* \"#utility.yul\":3599:3615   */\n      add\n        /* \"#utility.yul\":3593:3616   */\n      mload\n        /* \"#utility.yul\":3629:3692   */\n      tag_177\n        /* \"#utility.yul\":3686:3690   */\n      0x40\n        /* \"#utility.yul\":3681:3684   */\n      dup6\n        /* \"#utility.yul\":3677:3691   */\n      add\n        /* \"#utility.yul\":3663:3675   */\n      dup3\n        /* \"#utility.yul\":3629:3692   */\n      tag_103\n      jump\t// in\n    tag_177:\n        /* \"#utility.yul\":3536:3702   */\n      pop\n        /* \"#utility.yul\":3784:3788   */\n      0x60\n        /* \"#utility.yul\":3777:3782   */\n      dup3\n        /* \"#utility.yul\":3773:3789   */\n      add\n        /* \"#utility.yul\":3767:3790   */\n      mload\n        /* \"#utility.yul\":3803:3860   */\n      tag_178\n        /* \"#utility.yul\":3854:3858   */\n      0x60\n        /* \"#utility.yul\":3849:3852   */\n      dup6\n        /* \"#utility.yul\":3845:3859   */\n      add\n        /* \"#utility.yul\":3831:3843   */\n      dup3\n        /* \"#utility.yul\":3803:3860   */\n      tag_105\n      jump\t// in\n    tag_178:\n        /* \"#utility.yul\":3712:3870   */\n      pop\n        /* \"#utility.yul\":3955:3959   */\n      0x80\n        /* \"#utility.yul\":3948:3953   */\n      dup3\n        /* \"#utility.yul\":3944:3960   */\n      add\n        /* \"#utility.yul\":3938:3961   */\n      mload\n        /* \"#utility.yul\":3974:4031   */\n      tag_179\n        /* \"#utility.yul\":4025:4029   */\n      0x80\n        /* \"#utility.yul\":4020:4023   */\n      dup6\n        /* \"#utility.yul\":4016:4030   */\n      add\n        /* \"#utility.yul\":4002:4014   */\n      dup3\n        /* \"#utility.yul\":3974:4031   */\n      tag_105\n      jump\t// in\n    tag_179:\n        /* \"#utility.yul\":3880:4041   */\n      pop\n        /* \"#utility.yul\":3134:4048   */\n      pop\n        /* \"#utility.yul\":3022:4048   */\n      pop\n      pop\n      jump\t// out\n        /* \"#utility.yul\":4054:4369   */\n    tag_24:\n        /* \"#utility.yul\":4193:4197   */\n      0x00\n        /* \"#utility.yul\":4231:4234   */\n      0xa0\n        /* \"#utility.yul\":4220:4229   */\n      dup3\n        /* \"#utility.yul\":4216:4235   */\n      add\n        /* \"#utility.yul\":4208:4235   */\n      swap1\n      pop\n        /* \"#utility.yul\":4245:4362   */\n      tag_181\n        /* \"#utility.yul\":4359:4360   */\n      0x00\n        /* \"#utility.yul\":4348:4357   */\n      dup4\n        /* \"#utility.yul\":4344:4361   */\n      add\n        /* \"#utility.yul\":4335:4341   */\n      dup5\n        /* \"#utility.yul\":4245:4362   */\n      tag_106\n      jump\t// in\n    tag_181:\n        /* \"#utility.yul\":4054:4369   */\n      swap3\n      swap2\n      pop\n      pop\n      jump\t// out\n        /* \"#utility.yul\":4375:4493   */\n    tag_107:\n        /* \"#utility.yul\":4462:4486   */\n      tag_183\n        /* \"#utility.yul\":4480:4485   */\n      dup2\n        /* \"#utility.yul\":4462:4486   */\n      tag_101\n      jump\t// in\n    tag_183:\n        /* \"#utility.yul\":4457:4460   */\n      dup3\n        /* \"#utility.yul\":4450:4487   */\n      mstore\n        /* \"#utility.yul\":4375:4493   */\n      pop\n      pop\n      jump\t// out\n        /* \"#utility.yul\":4499:4608   */\n    tag_108:\n        /* \"#utility.yul\":4580:4601   */\n      tag_185\n        /* \"#utility.yul\":4595:4600   */\n      dup2\n        /* \"#utility.yul\":4580:4601   */\n      tag_104\n      jump\t// in\n    tag_185:\n        /* \"#utility.yul\":4575:4578   */\n      dup3\n        /* \"#utility.yul\":4568:4602   */\n      mstore\n        /* \"#utility.yul\":4499:4608   */\n      pop\n      pop\n      jump\t// out\n        /* \"#utility.yul\":4614:5254   */\n    tag_29:\n        /* \"#utility.yul\":4807:4811   */\n      0x00\n        /* \"#utility.yul\":4845:4848   */\n      0xa0\n        /* \"#utility.yul\":4834:4843   */\n      dup3\n        /* \"#utility.yul\":4830:4849   */\n      add\n        /* \"#utility.yul\":4822:4849   */\n      swap1\n      pop\n        /* \"#utility.yul\":4859:4930   */\n      tag_187\n        /* \"#utility.yul\":4927:4928   */\n      0x00\n        /* \"#utility.yul\":4916:4925   */\n      dup4\n        /* \"#utility.yul\":4912:4929   */\n      add\n        /* \"#utility.yul\":4903:4909   */\n      dup9\n        /* \"#utility.yul\":4859:4930   */\n      tag_107\n      jump\t// in\n    tag_187:\n        /* \"#utility.yul\":4940:5012   */\n      tag_188\n        /* \"#utility.yul\":5008:5010   */\n      0x20\n        /* \"#utility.yul\":4997:5006   */\n      dup4\n        /* \"#utility.yul\":4993:5011   */\n      add\n        /* \"#utility.yul\":4984:4990   */\n      dup8\n        /* \"#utility.yul\":4940:5012   */\n      tag_107\n      jump\t// in\n    tag_188:\n        /* \"#utility.yul\":5022:5094   */\n      tag_189\n        /* \"#utility.yul\":5090:5092   */\n      0x40\n        /* \"#utility.yul\":5079:5088   */\n      dup4\n        /* \"#utility.yul\":5075:5093   */\n      add\n        /* \"#utility.yul\":5066:5072   */\n      dup7\n        /* \"#utility.yul\":5022:5094   */\n      tag_89\n      jump\t// in\n    tag_189:\n        /* \"#utility.yul\":5104:5170   */\n      tag_190\n        /* \"#utility.yul\":5166:5168   */\n      0x60\n        /* \"#utility.yul\":5155:5164   */\n      dup4\n        /* \"#utility.yul\":5151:5169   */\n      add\n        /* \"#utility.yul\":5142:5148   */\n      dup6\n        /* \"#utility.yul\":5104:5170   */\n      tag_108\n      jump\t// in\n    tag_190:\n        /* \"#utility.yul\":5180:5247   */\n      tag_191\n        /* \"#utility.yul\":5242:5245   */\n      0x80\n        /* \"#utility.yul\":5231:5240   */\n      dup4\n        /* \"#utility.yul\":5227:5246   */\n      add\n        /* \"#utility.yul\":5218:5224   */\n      dup5\n        /* \"#utility.yul\":5180:5247   */\n      tag_108\n      jump\t// in\n    tag_191:\n        /* \"#utility.yul\":4614:5254   */\n      swap7\n      swap6\n      pop\n      pop\n      pop\n      pop\n      pop\n      pop\n      jump\t// out\n        /* \"#utility.yul\":5260:5382   */\n    tag_109:\n        /* \"#utility.yul\":5333:5357   */\n      tag_193\n        /* \"#utility.yul\":5351:5356   */\n      dup2\n        /* \"#utility.yul\":5333:5357   */\n      tag_101\n      jump\t// in\n    tag_193:\n        /* \"#utility.yul\":5326:5331   */\n      dup2\n        /* \"#utility.yul\":5323:5358   */\n      eq\n        /* \"#utility.yul\":5313:5376   */\n      tag_194\n      jumpi\n        /* \"#utility.yul\":5372:5373   */\n      0x00\n        /* \"#utility.yul\":5369:5370   */\n      0x00\n        /* \"#utility.yul\":5362:5374   */\n      revert\n        /* \"#utility.yul\":5313:5376   */\n    tag_194:\n        /* \"#utility.yul\":5260:5382   */\n      pop\n      jump\t// out\n        /* \"#utility.yul\":5388:5527   */\n    tag_110:\n        /* \"#utility.yul\":5434:5439   */\n      0x00\n        /* \"#utility.yul\":5472:5478   */\n      dup2\n        /* \"#utility.yul\":5459:5479   */\n      calldataload\n        /* \"#utility.yul\":5450:5479   */\n      swap1\n      pop\n        /* \"#utility.yul\":5488:5521   */\n      tag_196\n        /* \"#utility.yul\":5515:5520   */\n      dup2\n        /* \"#utility.yul\":5488:5521   */\n      tag_109\n      jump\t// in\n    tag_196:\n        /* \"#utility.yul\":5388:5527   */\n      swap3\n      swap2\n      pop\n      pop\n      jump\t// out\n        /* \"#utility.yul\":5533:6007   */\n    tag_35:\n        /* \"#utility.yul\":5601:5607   */\n      0x00\n        /* \"#utility.yul\":5609:5615   */\n      0x00\n        /* \"#utility.yul\":5658:5660   */\n      0x40\n        /* \"#utility.yul\":5646:5655   */\n      dup4\n        /* \"#utility.yul\":5637:5644   */\n      dup6\n        /* \"#utility.yul\":5633:5656   */\n      sub\n        /* \"#utility.yul\":5629:5661   */\n      slt\n        /* \"#utility.yul\":5626:5745   */\n      iszero\n      tag_198\n      jumpi\n        /* \"#utility.yul\":5664:5743   */\n      tag_199\n      tag_97\n      jump\t// in\n    tag_199:\n        /* \"#utility.yul\":5626:5745   */\n    tag_198:\n        /* \"#utility.yul\":5784:5785   */\n      0x00\n        /* \"#utility.yul\":5809:5862   */\n      tag_200\n        /* \"#utility.yul\":5854:5861   */\n      dup6\n        /* \"#utility.yul\":5845:5851   */\n      dup3\n        /* \"#utility.yul\":5834:5843   */\n      dup7\n        /* \"#utility.yul\":5830:5852   */\n      add\n        /* \"#utility.yul\":5809:5862   */\n      tag_110\n      jump\t// in\n    tag_200:\n        /* \"#utility.yul\":5799:5862   */\n      swap3\n      pop\n        /* \"#utility.yul\":5755:5872   */\n      pop\n        /* \"#utility.yul\":5911:5913   */\n      0x20\n        /* \"#utility.yul\":5937:5990   */\n      tag_201\n        /* \"#utility.yul\":5982:5989   */\n      dup6\n        /* \"#utility.yul\":5973:5979   */\n      dup3\n        /* \"#utility.yul\":5962:5971   */\n      dup7\n        /* \"#utility.yul\":5958:5980   */\n      add\n        /* \"#utility.yul\":5937:5990   */\n      tag_100\n      jump\t// in\n    tag_201:\n        /* \"#utility.yul\":5927:5990   */\n      swap2\n      pop\n        /* \"#utility.yul\":5882:6000   */\n      pop\n        /* \"#utility.yul\":5533:6007   */\n      swap3\n      pop\n      swap3\n      swap1\n      pop\n      jump\t// out\n        /* \"#utility.yul\":6013:6182   */\n    tag_111:\n        /* \"#utility.yul\":6097:6108   */\n      0x00\n        /* \"#utility.yul\":6131:6137   */\n      dup3\n        /* \"#utility.yul\":6126:6129   */\n      dup3\n        /* \"#utility.yul\":6119:6138   */\n      mstore\n        /* \"#utility.yul\":6171:6175   */\n      0x20\n        /* \"#utility.yul\":6166:6169   */\n      dup3\n        /* \"#utility.yul\":6162:6176   */\n      add\n        /* \"#utility.yul\":6147:6176   */\n      swap1\n      pop\n        /* \"#utility.yul\":6013:6182   */\n      swap3\n      swap2\n      pop\n      pop\n      jump\t// out\n        /* \"#utility.yul\":6188:6349   */\n    tag_112:\n        /* \"#utility.yul\":6328:6341   */\n      0x4f6e6c7920636c69656e74000000000000000000000000000000000000000000\n        /* \"#utility.yul\":6324:6325   */\n      0x00\n        /* \"#utility.yul\":6316:6322   */\n      dup3\n        /* \"#utility.yul\":6312:6326   */\n      add\n        /* \"#utility.yul\":6305:6342   */\n      mstore\n        /* \"#utility.yul\":6188:6349   */\n      pop\n      jump\t// out\n        /* \"#utility.yul\":6355:6721   */\n    tag_113:\n        /* \"#utility.yul\":6497:6500   */\n      0x00\n        /* \"#utility.yul\":6518:6585   */\n      tag_205\n        /* \"#utility.yul\":6582:6584   */\n      0x0b\n        /* \"#utility.yul\":6577:6580   */\n      dup4\n        /* \"#utility.yul\":6518:6585   */\n      tag_111\n      jump\t// in\n    tag_205:\n        /* \"#utility.yul\":6511:6585   */\n      swap2\n      pop\n        /* \"#utility.yul\":6594:6687   */\n      tag_206\n        /* \"#utility.yul\":6683:6686   */\n      dup3\n        /* \"#utility.yul\":6594:6687   */\n      tag_112\n      jump\t// in\n    tag_206:\n        /* \"#utility.yul\":6712:6714   */\n      0x20\n        /* \"#utility.yul\":6707:6710   */\n      dup3\n        /* \"#utility.yul\":6703:6715   */\n      add\n        /* \"#utility.yul\":6696:6715   */\n      swap1\n      pop\n        /* \"#utility.yul\":6355:6721   */\n      swap2\n      swap1\n      pop\n      jump\t// out\n        /* \"#utility.yul\":6727:7146   */\n    tag_46:\n        /* \"#utility.yul\":6893:6897   */\n      0x00\n        /* \"#utility.yul\":6931:6933   */\n      0x20\n        /* \"#utility.yul\":6920:6929   */\n      dup3\n        /* \"#utility.yul\":6916:6934   */\n      add\n        /* \"#utility.yul\":6908:6934   */\n      swap1\n      pop\n        /* \"#utility.yul\":6980:6989   */\n      dup2\n        /* \"#utility.yul\":6974:6978   */\n      dup2\n        /* \"#utility.yul\":6970:6990   */\n      sub\n        /* \"#utility.yul\":6966:6967   */\n      0x00\n        /* \"#utility.yul\":6955:6964   */\n      dup4\n        /* \"#utility.yul\":6951:6968   */\n      add\n        /* \"#utility.yul\":6944:6991   */\n      mstore\n        /* \"#utility.yul\":7008:7139   */\n      tag_208\n        /* \"#utility.yul\":7134:7138   */\n      dup2\n        /* \"#utility.yul\":7008:7139   */\n      tag_113\n      jump\t// in\n    tag_208:\n        /* \"#utility.yul\":7000:7139   */\n      swap1\n      pop\n        /* \"#utility.yul\":6727:7146   */\n      swap2\n      swap1\n      pop\n      jump\t// out\n        /* \"#utility.yul\":7152:7314   */\n    tag_114:\n        /* \"#utility.yul\":7292:7306   */\n      0x416c726561647920706169640000000000000000000000000000000000000000\n        /* \"#utility.yul\":7288:7289   */\n      0x00\n        /* \"#utility.yul\":7280:7286   */\n      dup3\n        /* \"#utility.yul\":7276:7290   */\n      add\n        /* \"#utility.yul\":7269:7307   */\n      mstore\n        /* \"#utility.yul\":7152:7314   */\n      pop\n      jump\t// out\n        /* \"#utility.yul\":7320:7686   */\n    tag_115:\n        /* \"#utility.yul\":7462:7465   */\n      0x00\n        /* \"#utility.yul\":7483:7550   */\n      tag_211\n        /* \"#utility.yul\":7547:7549   */\n      0x0c\n        /* \"#utility.yul\":7542:7545   */\n      dup4\n        /* \"#utility.yul\":7483:7550   */\n      tag_111\n      jump\t// in\n    tag_211:\n        /* \"#utility.yul\":7476:7550   */\n      swap2\n      pop\n        /* \"#utility.yul\":7559:7652   */\n      tag_212\n        /* \"#utility.yul\":7648:7651   */\n      dup3\n        /* \"#utility.yul\":7559:7652   */\n      tag_114\n      jump\t// in\n    tag_212:\n        /* \"#utility.yul\":7677:7679   */\n      0x20\n        /* \"#utility.yul\":7672:7675   */\n      dup3\n        /* \"#utility.yul\":7668:7680   */\n      add\n        /* \"#utility.yul\":7661:7680   */\n      swap1\n      pop\n        /* \"#utility.yul\":7320:7686   */\n      swap2\n      swap1\n      pop\n      jump\t// out\n        /* \"#utility.yul\":7692:8111   */\n    tag_49:\n        /* \"#utility.yul\":7858:7862   */\n      0x00\n        /* \"#utility.yul\":7896:7898   */\n      0x20\n        /* \"#utility.yul\":7885:7894   */\n      dup3\n        /* \"#utility.yul\":7881:7899   */\n      add\n        /* \"#utility.yul\":7873:7899   */\n      swap1\n      pop\n        /* \"#utility.yul\":7945:7954   */\n      dup2\n        /* \"#utility.yul\":7939:7943   */\n      dup2\n        /* \"#utility.yul\":7935:7955   */\n      sub\n        /* \"#utility.yul\":7931:7932   */\n      0x00\n        /* \"#utility.yul\":7920:7929   */\n      dup4\n        /* \"#utility.yul\":7916:7933   */\n      add\n        /* \"#utility.yul\":7909:7956   */\n      mstore\n        /* \"#utility.yul\":7973:8104   */\n      tag_214\n        /* \"#utility.yul\":8099:8103   */\n      dup2\n        /* \"#utility.yul\":7973:8104   */\n      tag_115\n      jump\t// in\n    tag_214:\n        /* \"#utility.yul\":7965:8104   */\n      swap1\n      pop\n        /* \"#utility.yul\":7692:8111   */\n      swap2\n      swap1\n      pop\n      jump\t// out\n        /* \"#utility.yul\":8117:8559   */\n    tag_51:\n        /* \"#utility.yul\":8266:8270   */\n      0x00\n        /* \"#utility.yul\":8304:8306   */\n      0x60\n        /* \"#utility.yul\":8293:8302   */\n      dup3\n        /* \"#utility.yul\":8289:8307   */\n      add\n        /* \"#utility.yul\":8281:8307   */\n      swap1\n      pop\n        /* \"#utility.yul\":8317:8388   */\n      tag_216\n        /* \"#utility.yul\":8385:8386   */\n      0x00\n        /* \"#utility.yul\":8374:8383   */\n      dup4\n        /* \"#utility.yul\":8370:8387   */\n      add\n        /* \"#utility.yul\":8361:8367   */\n      dup7\n        /* \"#utility.yul\":8317:8388   */\n      tag_107\n      jump\t// in\n    tag_216:\n        /* \"#utility.yul\":8398:8470   */\n      tag_217\n        /* \"#utility.yul\":8466:8468   */\n      0x20\n        /* \"#utility.yul\":8455:8464   */\n      dup4\n        /* \"#utility.yul\":8451:8469   */\n      add\n        /* \"#utility.yul\":8442:8448   */\n      dup6\n        /* \"#utility.yul\":8398:8470   */\n      tag_107\n      jump\t// in\n    tag_217:\n        /* \"#utility.yul\":8480:8552   */\n      tag_218\n        /* \"#utility.yul\":8548:8550   */\n      0x40\n        /* \"#utility.yul\":8537:8546   */\n      dup4\n        /* \"#utility.yul\":8533:8551   */\n      add\n        /* \"#utility.yul\":8524:8530   */\n      dup5\n        /* \"#utility.yul\":8480:8552   */\n      tag_89\n      jump\t// in\n    tag_218:\n        /* \"#utility.yul\":8117:8559   */\n      swap5\n      swap4\n      pop\n      pop\n      pop\n      pop\n      jump\t// out\n        /* \"#utility.yul\":8565:8681   */\n    tag_116:\n        /* \"#utility.yul\":8635:8656   */\n      tag_220\n        /* \"#utility.yul\":8650:8655   */\n      dup2\n        /* \"#utility.yul\":8635:8656   */\n      tag_104\n      jump\t// in\n    tag_220:\n        /* \"#utility.yul\":8628:8633   */\n      dup2\n        /* \"#utility.yul\":8625:8657   */\n      eq\n        /* \"#utility.yul\":8615:8675   */\n      tag_221\n      jumpi\n        /* \"#utility.yul\":8671:8672   */\n      0x00\n        /* \"#utility.yul\":8668:8669   */\n      0x00\n        /* \"#utility.yul\":8661:8673   */\n      revert\n        /* \"#utility.yul\":8615:8675   */\n    tag_221:\n        /* \"#utility.yul\":8565:8681   */\n      pop\n      jump\t// out\n        /* \"#utility.yul\":8687:8824   */\n    tag_117:\n        /* \"#utility.yul\":8741:8746   */\n      0x00\n        /* \"#utility.yul\":8772:8778   */\n      dup2\n        /* \"#utility.yul\":8766:8779   */\n      mload\n        /* \"#utility.yul\":8757:8779   */\n      swap1\n      pop\n        /* \"#utility.yul\":8788:8818   */\n      tag_223\n        /* \"#utility.yul\":8812:8817   */\n      dup2\n        /* \"#utility.yul\":8788:8818   */\n      tag_116\n      jump\t// in\n    tag_223:\n        /* \"#utility.yul\":8687:8824   */\n      swap3\n      swap2\n      pop\n      pop\n      jump\t// out\n        /* \"#utility.yul\":8830:9175   */\n    tag_55:\n        /* \"#utility.yul\":8897:8903   */\n      0x00\n        /* \"#utility.yul\":8946:8948   */\n      0x20\n        /* \"#utility.yul\":8934:8943   */\n      dup3\n        /* \"#utility.yul\":8925:8932   */\n      dup5\n        /* \"#utility.yul\":8921:8944   */\n      sub\n        /* \"#utility.yul\":8917:8949   */\n      slt\n        /* \"#utility.yul\":8914:9033   */\n      iszero\n      tag_225\n      jumpi\n        /* \"#utility.yul\":8952:9031   */\n      tag_226\n      tag_97\n      jump\t// in\n    tag_226:\n        /* \"#utility.yul\":8914:9033   */\n    tag_225:\n        /* \"#utility.yul\":9072:9073   */\n      0x00\n        /* \"#utility.yul\":9097:9158   */\n      tag_227\n        /* \"#utility.yul\":9150:9157   */\n      dup5\n        /* \"#utility.yul\":9141:9147   */\n      dup3\n        /* \"#utility.yul\":9130:9139   */\n      dup6\n        /* \"#utility.yul\":9126:9148   */\n      add\n        /* \"#utility.yul\":9097:9158   */\n      tag_117\n      jump\t// in\n    tag_227:\n        /* \"#utility.yul\":9087:9158   */\n      swap2\n      pop\n        /* \"#utility.yul\":9043:9168   */\n      pop\n        /* \"#utility.yul\":8830:9175   */\n      swap3\n      swap2\n      pop\n      pop\n      jump\t// out\n        /* \"#utility.yul\":9181:9346   */\n    tag_118:\n        /* \"#utility.yul\":9321:9338   */\n      0x5472616e73666572206661696c65640000000000000000000000000000000000\n        /* \"#utility.yul\":9317:9318   */\n      0x00\n        /* \"#utility.yul\":9309:9315   */\n      dup3\n        /* \"#utility.yul\":9305:9319   */\n      add\n        /* \"#utility.yul\":9298:9339   */\n      mstore\n        /* \"#utility.yul\":9181:9346   */\n      pop\n      jump\t// out\n        /* \"#utility.yul\":9352:9718   */\n    tag_119:\n        /* \"#utility.yul\":9494:9497   */\n      0x00\n        /* \"#utility.yul\":9515:9582   */\n      tag_230\n        /* \"#utility.yul\":9579:9581   */\n      0x0f\n        /* \"#utility.yul\":9574:9577   */\n      dup4\n        /* \"#utility.yul\":9515:9582   */\n      tag_111\n      jump\t// in\n    tag_230:\n        /* \"#utility.yul\":9508:9582   */\n      swap2\n      pop\n        /* \"#utility.yul\":9591:9684   */\n      tag_231\n        /* \"#utility.yul\":9680:9683   */\n      dup3\n        /* \"#utility.yul\":9591:9684   */\n      tag_118\n      jump\t// in\n    tag_231:\n        /* \"#utility.yul\":9709:9711   */\n      0x20\n        /* \"#utility.yul\":9704:9707   */\n      dup3\n        /* \"#utility.yul\":9700:9712   */\n      add\n        /* \"#utility.yul\":9693:9712   */\n      swap1\n      pop\n        /* \"#utility.yul\":9352:9718   */\n      swap2\n      swap1\n      pop\n      jump\t// out\n        /* \"#utility.yul\":9724:10143   */\n    tag_58:\n        /* \"#utility.yul\":9890:9894   */\n      0x00\n        /* \"#utility.yul\":9928:9930   */\n      0x20\n        /* \"#utility.yul\":9917:9926   */\n      dup3\n        /* \"#utility.yul\":9913:9931   */\n      add\n        /* \"#utility.yul\":9905:9931   */\n      swap1\n      pop\n        /* \"#utility.yul\":9977:9986   */\n      dup2\n        /* \"#utility.yul\":9971:9975   */\n      dup2\n        /* \"#utility.yul\":9967:9987   */\n      sub\n        /* \"#utility.yul\":9963:9964   */\n      0x00\n        /* \"#utility.yul\":9952:9961   */\n      dup4\n        /* \"#utility.yul\":9948:9965   */\n      add\n        /* \"#utility.yul\":9941:9988   */\n      mstore\n        /* \"#utility.yul\":10005:10136   */\n      tag_233\n        /* \"#utility.yul\":10131:10135   */\n      dup2\n        /* \"#utility.yul\":10005:10136   */\n      tag_119\n      jump\t// in\n    tag_233:\n        /* \"#utility.yul\":9997:10136   */\n      swap1\n      pop\n        /* \"#utility.yul\":9724:10143   */\n      swap2\n      swap1\n      pop\n      jump\t// out\n        /* \"#utility.yul\":10149:10313   */\n    tag_120:\n        /* \"#utility.yul\":10289:10305   */\n      0x496e76616c696420636c69656e74000000000000000000000000000000000000\n        /* \"#utility.yul\":10285:10286   */\n      0x00\n        /* \"#utility.yul\":10277:10283   */\n      dup3\n        /* \"#utility.yul\":10273:10287   */\n      add\n        /* \"#utility.yul\":10266:10306   */\n      mstore\n        /* \"#utility.yul\":10149:10313   */\n      pop\n      jump\t// out\n        /* \"#utility.yul\":10319:10685   */\n    tag_121:\n        /* \"#utility.yul\":10461:10464   */\n      0x00\n        /* \"#utility.yul\":10482:10549   */\n      tag_236\n        /* \"#utility.yul\":10546:10548   */\n      0x0e\n        /* \"#utility.yul\":10541:10544   */\n      dup4\n        /* \"#utility.yul\":10482:10549   */\n      tag_111\n      jump\t// in\n    tag_236:\n        /* \"#utility.yul\":10475:10549   */\n      swap2\n      pop\n        /* \"#utility.yul\":10558:10651   */\n      tag_237\n        /* \"#utility.yul\":10647:10650   */\n      dup3\n        /* \"#utility.yul\":10558:10651   */\n      tag_120\n      jump\t// in\n    tag_237:\n        /* \"#utility.yul\":10676:10678   */\n      0x20\n        /* \"#utility.yul\":10671:10674   */\n      dup3\n        /* \"#utility.yul\":10667:10679   */\n      add\n        /* \"#utility.yul\":10660:10679   */\n      swap1\n      pop\n        /* \"#utility.yul\":10319:10685   */\n      swap2\n      swap1\n      pop\n      jump\t// out\n        /* \"#utility.yul\":10691:11110   */\n    tag_62:\n        /* \"#utility.yul\":10857:10861   */\n      0x00\n        /* \"#utility.yul\":10895:10897   */\n      0x20\n        /* \"#utility.yul\":10884:10893   */\n      dup3\n        /* \"#utility.yul\":10880:10898   */\n      add\n        /* \"#utility.yul\":10872:10898   */\n      swap1\n      pop\n        /* \"#utility.yul\":10944:10953   */\n      dup2\n        /* \"#utility.yul\":10938:10942   */\n      dup2\n        /* \"#utility.yul\":10934:10954   */\n      sub\n        /* \"#utility.yul\":10930:10931   */\n      0x00\n        /* \"#utility.yul\":10919:10928   */\n      dup4\n        /* \"#utility.yul\":10915:10932   */\n      add\n        /* \"#utility.yul\":10908:10955   */\n      mstore\n        /* \"#utility.yul\":10972:11103   */\n      tag_239\n        /* \"#utility.yul\":11098:11102   */\n      dup2\n        /* \"#utility.yul\":10972:11103   */\n      tag_121\n      jump\t// in\n    tag_239:\n        /* \"#utility.yul\":10964:11103   */\n      swap1\n      pop\n        /* \"#utility.yul\":10691:11110   */\n      swap2\n      swap1\n      pop\n      jump\t// out\n        /* \"#utility.yul\":11116:11276   */\n    tag_122:\n        /* \"#utility.yul\":11256:11268   */\n      0x416d6f756e74203e203000000000000000000000000000000000000000000000\n        /* \"#utility.yul\":11252:11253   */\n      0x00\n        /* \"#utility.yul\":11244:11250   */\n      dup3\n        /* \"#utility.yul\":11240:11254   */\n      add\n        /* \"#utility.yul\":11233:11269   */\n      mstore\n        /* \"#utility.yul\":11116:11276   */\n      pop\n      jump\t// out\n        /* \"#utility.yul\":11282:11648   */\n    tag_123:\n        /* \"#utility.yul\":11424:11427   */\n      0x00\n        /* \"#utility.yul\":11445:11512   */\n      tag_242\n        /* \"#utility.yul\":11509:11511   */\n      0x0a\n        /* \"#utility.yul\":11504:11507   */\n      dup4\n        /* \"#utility.yul\":11445:11512   */\n      tag_111\n      jump\t// in\n    tag_242:\n        /* \"#utility.yul\":11438:11512   */\n      swap2\n      pop\n        /* \"#utility.yul\":11521:11614   */\n      tag_243\n        /* \"#utility.yul\":11610:11613   */\n      dup3\n        /* \"#utility.yul\":11521:11614   */\n      tag_122\n      jump\t// in\n    tag_243:\n        /* \"#utility.yul\":11639:11641   */\n      0x20\n        /* \"#utility.yul\":11634:11637   */\n      dup3\n        /* \"#utility.yul\":11630:11642   */\n      add\n        /* \"#utility.yul\":11623:11642   */\n      swap1\n      pop\n        /* \"#utility.yul\":11282:11648   */\n      swap2\n      swap1\n      pop\n      jump\t// out\n        /* \"#utility.yul\":11654:12073   */\n    tag_65:\n        /* \"#utility.yul\":11820:11824   */\n      0x00\n        /* \"#utility.yul\":11858:11860   */\n      0x20\n        /* \"#utility.yul\":11847:11856   */\n      dup3\n        /* \"#utility.yul\":11843:11861   */\n      add\n        /* \"#utility.yul\":11835:11861   */\n      swap1\n      pop\n        /* \"#utility.yul\":11907:11916   */\n      dup2\n        /* \"#utility.yul\":11901:11905   */\n      dup2\n        /* \"#utility.yul\":11897:11917   */\n      sub\n        /* \"#utility.yul\":11893:11894   */\n      0x00\n        /* \"#utility.yul\":11882:11891   */\n      dup4\n        /* \"#utility.yul\":11878:11895   */\n      add\n        /* \"#utility.yul\":11871:11918   */\n      mstore\n        /* \"#utility.yul\":11935:12066   */\n      tag_245\n        /* \"#utility.yul\":12061:12065   */\n      dup2\n        /* \"#utility.yul\":11935:12066   */\n      tag_123\n      jump\t// in\n    tag_245:\n        /* \"#utility.yul\":11927:12066   */\n      swap1\n      pop\n        /* \"#utility.yul\":11654:12073   */\n      swap2\n      swap1\n      pop\n      jump\t// out\n        /* \"#utility.yul\":12079:12259   */\n    tag_124:\n        /* \"#utility.yul\":12127:12204   */\n      0x4e487b7100000000000000000000000000000000000000000000000000000000\n        /* \"#utility.yul\":12124:12125   */\n      0x00\n        /* \"#utility.yul\":12117:12205   */\n      mstore\n        /* \"#utility.yul\":12224:12228   */\n      0x11\n        /* \"#utility.yul\":12221:12222   */\n      0x04\n        /* \"#utility.yul\":12214:12229   */\n      mstore\n        /* \"#utility.yul\":12248:12252   */\n      0x24\n        /* \"#utility.yul\":12245:12246   */\n      0x00\n        /* \"#utility.yul\":12238:12253   */\n      revert\n        /* \"#utility.yul\":12265:12498   */\n    tag_67:\n        /* \"#utility.yul\":12304:12307   */\n      0x00\n        /* \"#utility.yul\":12327:12351   */\n      tag_248\n        /* \"#utility.yul\":12345:12350   */\n      dup3\n        /* \"#utility.yul\":12327:12351   */\n      tag_88\n      jump\t// in\n    tag_248:\n        /* \"#utility.yul\":12318:12351   */\n      swap2\n      pop\n        /* \"#utility.yul\":12373:12439   */\n      0xffffffffffffffffffffffffffffffffffffffffffffffffffffffffffffffff\n        /* \"#utility.yul\":12366:12371   */\n      dup3\n        /* \"#utility.yul\":12363:12440   */\n      sub\n        /* \"#utility.yul\":12360:12463   */\n      tag_249\n      jumpi\n        /* \"#utility.yul\":12443:12461   */\n      tag_250\n      tag_124\n      jump\t// in\n    tag_250:\n        /* \"#utility.yul\":12360:12463   */\n    tag_249:\n        /* \"#utility.yul\":12490:12491   */\n      0x01\n        /* \"#utility.yul\":12483:12488   */\n      dup3\n        /* \"#utility.yul\":12479:12492   */\n      add\n        /* \"#utility.yul\":12472:12492   */\n      swap1\n      pop\n        /* \"#utility.yul\":12265:12498   */\n      swap2\n      swap1\n      pop\n      jump\t// out\n        /* \"#utility.yul\":12504:12669   */\n    tag_125:\n        /* \"#utility.yul\":12644:12661   */\n      0x4f6e6c7920667265656c616e6365720000000000000000000000000000000000\n        /* \"#utility.yul\":12640:12641   */\n      0x00\n        /* \"#utility.yul\":12632:12638   */\n      dup3\n        /* \"#utility.yul\":12628:12642   */\n      add\n        /* \"#utility.yul\":12621:12662   */\n      mstore\n        /* \"#utility.yul\":12504:12669   */\n      pop\n      jump\t// out\n        /* \"#utility.yul\":12675:13041   */\n    tag_126:\n        /* \"#utility.yul\":12817:12820   */\n      0x00\n        /* \"#utility.yul\":12838:12905   */\n      tag_253\n        /* \"#utility.yul\":12902:12904   */\n      0x0f\n        /* \"#utility.yul\":12897:12900   */\n      dup4\n        /* \"#utility.yul\":12838:12905   */\n      tag_111\n      jump\t// in\n    tag_253:\n        /* \"#utility.yul\":12831:12905   */\n      swap2\n      pop\n        /* \"#utility.yul\":12914:13007   */\n      tag_254\n        /* \"#utility.yul\":13003:13006   */\n      dup3\n        /* \"#utility.yul\":12914:13007   */\n      tag_125\n      jump\t// in\n    tag_254:\n        /* \"#utility.yul\":13032:13034   */\n      0x20\n        /* \"#utility.yul\":13027:13030   */\n      dup3\n        /* \"#utility.yul\":13023:13035   */\n      add\n        /* \"#utility.yul\":13016:13035   */\n      swap1\n      pop\n        /* \"#utility.yul\":12675:13041   */\n      swap2\n      swap1\n      pop\n      jump\t// out\n        /* \"#utility.yul\":13047:13466   */\n    tag_72:\n        /* \"#utility.yul\":13213:13217   */\n      0x00\n        /* \"#utility.yul\":13251:13253   */\n      0x20\n        /* \"#utility.yul\":13240:13249   */\n      dup3\n        /* \"#utility.yul\":13236:13254   */\n      add\n        /* \"#utility.yul\":13228:13254   */\n      swap1\n      pop\n        /* \"#utility.yul\":13300:13309   */\n      dup2\n        /* \"#utility.yul\":13294:13298   */\n      dup2\n        /* \"#utility.yul\":13290:13310   */\n      sub\n        /* \"#utility.yul\":13286:13287   */\n      0x00\n        /* \"#utility.yul\":13275:13284   */\n      dup4\n        /* \"#utility.yul\":13271:13288   */\n      add\n        /* \"#utility.yul\":13264:13311   */\n      mstore\n        /* \"#utility.yul\":13328:13459   */\n      tag_256\n        /* \"#utility.yul\":13454:13458   */\n      dup2\n        /* \"#utility.yul\":13328:13459   */\n      tag_126\n      jump\t// in\n    tag_256:\n        /* \"#utility.yul\":13320:13459   */\n      swap1\n      pop\n        /* \"#utility.yul\":13047:13466   */\n      swap2\n      swap1\n      pop\n      jump\t// out\n        /* \"#utility.yul\":13472:13630   */\n    tag_127:\n        /* \"#utility.yul\":13612:13622   */\n      0x4e6f742070616964000000000000000000000000000000000000000000000000\n        /* \"#utility.yul\":13608:13609   */\n      0x00\n        /* \"#utility.yul\":13600:13606   */\n      dup3\n        /* \"#utility.yul\":13596:13610   */\n      add\n        /* \"#utility.yul\":13589:13623   */\n      mstore\n        /* \"#utility.yul\":13472:13630   */\n      pop\n      jump\t// out\n        /* \"#utility.yul\":13636:14001   */\n    tag_128:\n        /* \"#utility.yul\":13778:13781   */\n      0x00\n        /* \"#utility.yul\":13799:13865   */\n      tag_259\n        /* \"#utility.yul\":13863:13864   */\n      0x08\n        /* \"#utility.yul\":13858:13861   */\n      dup4\n        /* \"#utility.yul\":13799:13865   */\n      tag_111\n      jump\t// in\n    tag_259:\n        /* \"#utility.yul\":13792:13865   */\n      swap2\n      pop\n        /* \"#utility.yul\":13874:13967   */\n      tag_260\n        /* \"#utility.yul\":13963:13966   */\n      dup3\n        /* \"#utility.yul\":13874:13967   */\n      tag_127\n      jump\t// in\n    tag_260:\n        /* \"#utility.yul\":13992:13994   */\n      0x20\n        /* \"#utility.yul\":13987:13990   */\n      dup3\n        /* \"#utility.yul\":13983:13995   */\n      add\n        /* \"#utility.yul\":13976:13995   */\n      swap1\n      pop\n        /* \"#utility.yul\":13636:14001   */\n      swap2\n      swap1\n      pop\n      jump\t// out\n        /* \"#utility.yul\":14007:14426   */\n    tag_75:\n        /* \"#utility.yul\":14173:14177   */\n      0x00\n        /* \"#utility.yul\":14211:14213   */\n      0x20\n        /* \"#utility.yul\":14200:14209   */\n      dup3\n        /* \"#utility.yul\":14196:14214   */\n      add\n        /* \"#utility.yul\":14188:14214   */\n      swap1\n      pop\n        /* \"#utility.yul\":14260:14269   */\n      dup2\n        /* \"#utility.yul\":14254:14258   */\n      dup2\n        /* \"#utility.yul\":14250:14270   */\n      sub\n        /* \"#utility.yul\":14246:14247   */\n      0x00\n        /* \"#utility.yul\":14235:14244   */\n      dup4\n        /* \"#utility.yul\":14231:14248   */\n      add\n        /* \"#utility.yul\":14224:14271   */\n      mstore\n        /* \"#utility.yul\":14288:14419   */\n      tag_262\n        /* \"#utility.yul\":14414:14418   */\n      dup2\n        /* \"#utility.yul\":14288:14419   */\n      tag_128\n      jump\t// in\n    tag_262:\n        /* \"#utility.yul\":14280:14419   */\n      swap1\n      pop\n        /* \"#utility.yul\":14007:14426   */\n      swap2\n      swap1\n      pop\n      jump\t// out\n        /* \"#utility.yul\":14432:14597   */\n    tag_129:\n        /* \"#utility.yul\":14572:14589   */\n      0x416c726561647920636c61696d65640000000000000000000000000000000000\n        /* \"#utility.yul\":14568:14569   */\n      0x00\n        /* \"#utility.yul\":14560:14566   */\n      dup3\n        /* \"#utility.yul\":14556:14570   */\n      add\n        /* \"#utility.yul\":14549:14590   */\n      mstore\n        /* \"#utility.yul\":14432:14597   */\n      pop\n      jump\t// out\n        /* \"#utility.yul\":14603:14969   */\n    tag_130:\n        /* \"#utility.yul\":14745:14748   */\n      0x00\n        /* \"#utility.yul\":14766:14833   */\n      tag_265\n        /* \"#utility.yul\":14830:14832   */\n      0x0f\n        /* \"#utility.yul\":14825:14828   */\n      dup4\n        /* \"#utility.yul\":14766:14833   */\n      tag_111\n      jump\t// in\n    tag_265:\n        /* \"#utility.yul\":14759:14833   */\n      swap2\n      pop\n        /* \"#utility.yul\":14842:14935   */\n      tag_266\n        /* \"#utility.yul\":14931:14934   */\n      dup3\n        /* \"#utility.yul\":14842:14935   */\n      tag_129\n      jump\t// in\n    tag_266:\n        /* \"#utility.yul\":14960:14962   */\n      0x20\n        /* \"#utility.yul\":14955:14958   */\n      dup3\n        /* \"#utility.yul\":14951:14963   */\n      add\n        /* \"#utility.yul\":14944:14963   */\n      swap1\n      pop\n        /* \"#utility.yul\":14603:14969   */\n      swap2\n      swap1\n      pop\n      jump\t// out\n        /* \"#utility.yul\":14975:15394   */\n    tag_78:\n        /* \"#utility.yul\":15141:15145   */\n      0x00\n        /* \"#utility.yul\":15179:15181   */\n      0x20\n        /* \"#utility.yul\":15168:15177   */\n      dup3\n        /* \"#utility.yul\":15164:15182   */\n      add\n        /* \"#utility.yul\":15156:15182   */\n      swap1\n      pop\n        /* \"#utility.yul\":15228:15237   */\n      dup2\n        /* \"#utility.yul\":15222:15226   */\n      dup2\n        /* \"#utility.yul\":15218:15238   */\n      sub\n        /* \"#utility.yul\":15214:15215   */\n      0x00\n        /* \"#utility.yul\":15203:15212   */\n      dup4\n        /* \"#utility.yul\":15199:15216   */\n      add\n        /* \"#utility.yul\":15192:15239   */\n      mstore\n        /* \"#utility.yul\":15256:15387   */\n      tag_268\n        /* \"#utility.yul\":15382:15386   */\n      dup2\n        /* \"#utility.yul\":15256:15387   */\n      tag_130\n      jump\t// in\n    tag_268:\n        /* \"#utility.yul\":15248:15387   */\n      swap1\n      pop\n        /* \"#utility.yul\":14975:15394   */\n      swap2\n      swap1\n      pop\n      jump\t// out\n        /* \"#utility.yul\":15400:15732   */\n    tag_80:\n        /* \"#utility.yul\":15521:15525   */\n      0x00\n        /* \"#utility.yul\":15559:15561   */\n      0x40\n        /* \"#utility.yul\":15548:15557   */\n      dup3\n        /* \"#utility.yul\":15544:15562   */\n      add\n        /* \"#utility.yul\":15536:15562   */\n      swap1\n      pop\n        /* \"#utility.yul\":15572:15643   */\n      tag_270\n        /* \"#utility.yul\":15640:15641   */\n      0x00\n        /* \"#utility.yul\":15629:15638   */\n      dup4\n        /* \"#utility.yul\":15625:15642   */\n      add\n        /* \"#utility.yul\":15616:15622   */\n      dup6\n        /* \"#utility.yul\":15572:15643   */\n      tag_107\n      jump\t// in\n    tag_270:\n        /* \"#utility.yul\":15653:15725   */\n      tag_271\n        /* \"#utility.yul\":15721:15723   */\n      0x20\n        /* \"#utility.yul\":15710:15719   */\n      dup4\n        /* \"#utility.yul\":15706:15724   */\n      add\n        /* \"#utility.yul\":15697:15703   */\n      dup5\n        /* \"#utility.yul\":15653:15725   */\n      tag_89\n      jump\t// in\n    tag_271:\n        /* \"#utility.yul\":15400:15732   */\n      swap4\n      swap3\n      pop\n      pop\n      pop\n      jump\t// out\n        /* \"#utility.yul\":15738:15900   */\n    tag_131:\n        /* \"#utility.yul\":15878:15892   */\n      0x436c61696d206661696c65640000000000000000000000000000000000000000\n        /* \"#utility.yul\":15874:15875   */\n      0x00\n        /* \"#utility.yul\":15866:15872   */\n      dup3\n        /* \"#utility.yul\":15862:15876   */\n      add\n        /* \"#utility.yul\":15855:15893   */\n      mstore\n        /* \"#utility.yul\":15738:15900   */\n      pop\n      jump\t// out\n        /* \"#utility.yul\":15906:16272   */\n    tag_132:\n        /* \"#utility.yul\":16048:16051   */\n      0x00\n        /* \"#utility.yul\":16069:16136   */\n      tag_274\n        /* \"#utility.yul\":16133:16135   */\n      0x0c\n        /* \"#utility.yul\":16128:16131   */\n      dup4\n        /* \"#utility.yul\":16069:16136   */\n      tag_111\n      jump\t// in\n    tag_274:\n        /* \"#utility.yul\":16062:16136   */\n      swap2\n      pop\n        /* \"#utility.yul\":16145:16238   */\n      tag_275\n        /* \"#utility.yul\":16234:16237   */\n      dup3\n        /* \"#utility.yul\":16145:16238   */\n      tag_131\n      jump\t// in\n    tag_275:\n        /* \"#utility.yul\":16263:16265   */\n      0x20\n        /* \"#utility.yul\":16258:16261   */\n      dup3\n        /* \"#utility.yul\":16254:16266   */\n      add\n        /* \"#utility.yul\":16247:16266   */\n      swap1\n      pop\n        /* \"#utility.yul\":15906:16272   */\n      swap2\n      swap1\n      pop\n      jump\t// out\n        /* \"#utility.yul\":16278:16697   */\n    tag_86:\n        /* \"#utility.yul\":16444:16448   */\n      0x00\n        /* \"#utility.yul\":16482:16484   */\n      0x20\n        /* \"#utility.yul\":16471:16480   */\n      dup3\n        /* \"#utility.yul\":16467:16485   */\n      add\n        /* \"#utility.yul\":16459:16485   */\n      swap1\n      pop\n        /* \"#utility.yul\":16531:16540   */\n      dup2\n        /* \"#utility.yul\":16525:16529   */\n      dup2\n        /* \"#utility.yul\":16521:16541   */\n      sub\n        /* \"#utility.yul\":16517:16518   */\n      0x00\n        /* \"#utility.yul\":16506:16515   */\n      dup4\n        /* \"#utility.yul\":16502:16519   */\n      add\n        /* \"#utility.yul\":16495:16542   */\n      mstore\n        /* \"#utility.yul\":16559:16690   */\n      tag_277\n        /* \"#utility.yul\":16685:16689   */\n      dup2\n        /* \"#utility.yul\":16559:16690   */\n      tag_132\n      jump\t// in\n    tag_277:\n        /* \"#utility.yul\":16551:16690   */\n      swap1\n      pop\n        /* \"#utility.yul\":16278:16697   */\n      swap2\n      swap1\n      pop\n      jump\t// out\n\n    auxdata: 0xa26469706673582212200275487978eb1bd7a31e3b42e973b097f3fb8303e5a0bd843de8d28a6547deac64736f6c634300081e0033\n}\n",
				"bytecode": {
					"linkReferences": {},
					"object": "60a060405234801561000f575f5ffd5b50604051611363380380611363833981810160405281019061003191906100c9565b8073ffffffffffffffffffffffffffffffffffffffff1660808173ffffffffffffffffffffffffffffffffffffffff1681525050506100f4565b5f5ffd5b5f73ffffffffffffffffffffffffffffffffffffffff82169050919050565b5f6100988261006f565b9050919050565b6100a88161008e565b81146100b2575f5ffd5b50565b5f815190506100c38161009f565b92915050565b5f602082840312156100de576100dd61006b565b5b5f6100eb848285016100b5565b91505092915050565b60805161124961011a5f395f818161017b0152818161042e015261090401526112495ff3fe608060405234801561000f575f5ffd5b506004361061007b575f3560e01c80634e6d1405116100595780634e6d1405146100eb578063ac60a6cd1461011f578063b09585321461013b578063c08b5808146101575761007b565b80631346f0c41461007f5780631fccf6721461009d5780633a23cc0a146100bb575b5f5ffd5b610087610173565b6040516100949190610a92565b60405180910390f35b6100a5610179565b6040516100b29190610b25565b60405180910390f35b6100d560048036038101906100d09190610b6c565b61019d565b6040516100e29190610c46565b60405180910390f35b61010560048036038101906101009190610b6c565b6102af565b604051610116959493929190610c7d565b60405180910390f35b61013960048036038101906101349190610b6c565b610337565b005b61015560048036038101906101509190610cf8565b610559565b005b610171600480360381019061016c9190610b6c565b6107a0565b005b60015481565b7f000000000000000000000000000000000000000000000000000000000000000081565b6101a5610a20565b5f5f8381526020019081526020015f206040518060a00160405290815f82015f9054906101000a900473ffffffffffffffffffffffffffffffffffffffff1673ffffffffffffffffffffffffffffffffffffffff1673ffffffffffffffffffffffffffffffffffffffff168152602001600182015f9054906101000a900473ffffffffffffffffffffffffffffffffffffffff1673ffffffffffffffffffffffffffffffffffffffff1673ffffffffffffffffffffffffffffffffffffffff16815260200160028201548152602001600382015f9054906101000a900460ff161515151581526020016003820160019054906101000a900460ff1615151515815250509050919050565b5f602052805f5260405f205f91509050805f015f9054906101000a900473ffffffffffffffffffffffffffffffffffffffff1690806001015f9054906101000a900473ffffffffffffffffffffffffffffffffffffffff1690806002015490806003015f9054906101000a900460ff16908060030160019054906101000a900460ff16905085565b5f5f5f8381526020019081526020015f209050806001015f9054906101000a900473ffffffffffffffffffffffffffffffffffffffff1673ffffffffffffffffffffffffffffffffffffffff163373ffffffffffffffffffffffffffffffffffffffff16146103db576040517f08c379a00000000000000000000000000000000000000000000000000000000081526004016103d290610d90565b60405180910390fd5b806003015f9054906101000a900460ff161561042c576040517f08c379a000000000000000000000000000000000000000000000000000000000815260040161042390610df8565b60405180910390fd5b7f000000000000000000000000000000000000000000000000000000000000000073ffffffffffffffffffffffffffffffffffffffff166323b872dd333084600201546040518463ffffffff1660e01b815260040161048d93929190610e16565b6020604051808303815f875af11580156104a9573d5f5f3e3d5ffd5b505050506040513d601f19601f820116820180604052508101906104cd9190610e75565b61050c576040517f08c379a000000000000000000000000000000000000000000000000000000000815260040161050390610eea565b60405180910390fd5b6001816003015f6101000a81548160ff021916908315150217905550817f4d6cfd329415806d53db8988cd3c035f681754c229f8d7e5183507deae65cc1660405160405180910390a25050565b5f73ffffffffffffffffffffffffffffffffffffffff168273ffffffffffffffffffffffffffffffffffffffff16036105c7576040517f08c379a00000000000000000000000000000000000000000000000000000000081526004016105be90610f52565b60405180910390fd5b5f8111610609576040517f08c379a000000000000000000000000000000000000000000000000000000000815260040161060090610fba565b60405180910390fd5b5f60015f81548092919061061c90611005565b9190505590506040518060a001604052803373ffffffffffffffffffffffffffffffffffffffff1681526020018473ffffffffffffffffffffffffffffffffffffffff1681526020018381526020015f151581526020015f15158152505f5f8381526020019081526020015f205f820151815f015f6101000a81548173ffffffffffffffffffffffffffffffffffffffff021916908373ffffffffffffffffffffffffffffffffffffffff1602179055506020820151816001015f6101000a81548173ffffffffffffffffffffffffffffffffffffffff021916908373ffffffffffffffffffffffffffffffffffffffff160217905550604082015181600201556060820151816003015f6101000a81548160ff02191690831515021790555060808201518160030160016101000a81548160ff021916908315150217905550905050807f88721abb1d35cff296c5d462601d6bdfed57e9493f8c361d2bcc24241a2ebfec33858560405161079393929190610e16565b60405180910390a2505050565b5f5f5f8381526020019081526020015f209050805f015f9054906101000a900473ffffffffffffffffffffffffffffffffffffffff1673ffffffffffffffffffffffffffffffffffffffff163373ffffffffffffffffffffffffffffffffffffffff1614610843576040517f08c379a000000000000000000000000000000000000000000000000000000000815260040161083a90611096565b60405180910390fd5b806003015f9054906101000a900460ff16610893576040517f08c379a000000000000000000000000000000000000000000000000000000000815260040161088a906110fe565b60405180910390fd5b8060030160019054906101000a900460ff16156108e5576040517f08c379a00000000000000000000000000000000000000000000000000000000081526004016108dc90611166565b60405180910390fd5b60018160030160016101000a81548160ff0219169083151502179055507f000000000000000000000000000000000000000000000000000000000000000073ffffffffffffffffffffffffffffffffffffffff1663a9059cbb3383600201546040518363ffffffff1660e01b8152600401610961929190611184565b6020604051808303815f875af115801561097d573d5f5f3e3d5ffd5b505050506040513d601f19601f820116820180604052508101906109a19190610e75565b6109e0576040517f08c379a00000000000000000000000000000000000000000000000000000000081526004016109d7906111f5565b60405180910390fd5b817f92e5f75781876b7af9b7b392dfdbdc58e0807f7d3d506b918eb86eae87da9f928260020154604051610a149190610a92565b60405180910390a25050565b6040518060a001604052805f73ffffffffffffffffffffffffffffffffffffffff1681526020015f73ffffffffffffffffffffffffffffffffffffffff1681526020015f81526020015f151581526020015f151581525090565b5f819050919050565b610a8c81610a7a565b82525050565b5f602082019050610aa55f830184610a83565b92915050565b5f73ffffffffffffffffffffffffffffffffffffffff82169050919050565b5f819050919050565b5f610aed610ae8610ae384610aab565b610aca565b610aab565b9050919050565b5f610afe82610ad3565b9050919050565b5f610b0f82610af4565b9050919050565b610b1f81610b05565b82525050565b5f602082019050610b385f830184610b16565b92915050565b5f5ffd5b610b4b81610a7a565b8114610b55575f5ffd5b50565b5f81359050610b6681610b42565b92915050565b5f60208284031215610b8157610b80610b3e565b5b5f610b8e84828501610b58565b91505092915050565b5f610ba182610aab565b9050919050565b610bb181610b97565b82525050565b610bc081610a7a565b82525050565b5f8115159050919050565b610bda81610bc6565b82525050565b60a082015f820151610bf45f850182610ba8565b506020820151610c076020850182610ba8565b506040820151610c1a6040850182610bb7565b506060820151610c2d6060850182610bd1565b506080820151610c406080850182610bd1565b50505050565b5f60a082019050610c595f830184610be0565b92915050565b610c6881610b97565b82525050565b610c7781610bc6565b82525050565b5f60a082019050610c905f830188610c5f565b610c9d6020830187610c5f565b610caa6040830186610a83565b610cb76060830185610c6e565b610cc46080830184610c6e565b9695505050505050565b610cd781610b97565b8114610ce1575f5ffd5b50565b5f81359050610cf281610cce565b92915050565b5f5f60408385031215610d0e57610d0d610b3e565b5b5f610d1b85828601610ce4565b9250506020610d2c85828601610b58565b9150509250929050565b5f82825260208201905092915050565b7f4f6e6c7920636c69656e740000000000000000000000000000000000000000005f82015250565b5f610d7a600b83610d36565b9150610d8582610d46565b602082019050919050565b5f6020820190508181035f830152610da781610d6e565b9050919050565b7f416c7265616479207061696400000000000000000000000000000000000000005f82015250565b5f610de2600c83610d36565b9150610ded82610dae565b602082019050919050565b5f6020820190508181035f830152610e0f81610dd6565b9050919050565b5f606082019050610e295f830186610c5f565b610e366020830185610c5f565b610e436040830184610a83565b949350505050565b610e5481610bc6565b8114610e5e575f5ffd5b50565b5f81519050610e6f81610e4b565b92915050565b5f60208284031215610e8a57610e89610b3e565b5b5f610e9784828501610e61565b91505092915050565b7f5472616e73666572206661696c656400000000000000000000000000000000005f82015250565b5f610ed4600f83610d36565b9150610edf82610ea0565b602082019050919050565b5f6020820190508181035f830152610f0181610ec8565b9050919050565b7f496e76616c696420636c69656e740000000000000000000000000000000000005f82015250565b5f610f3c600e83610d36565b9150610f4782610f08565b602082019050919050565b5f6020820190508181035f830152610f6981610f30565b9050919050565b7f416d6f756e74203e2030000000000000000000000000000000000000000000005f82015250565b5f610fa4600a83610d36565b9150610faf82610f70565b602082019050919050565b5f6020820190508181035f830152610fd181610f98565b9050919050565b7f4e487b71000000000000000000000000000000000000000000000000000000005f52601160045260245ffd5b5f61100f82610a7a565b91507fffffffffffffffffffffffffffffffffffffffffffffffffffffffffffffffff820361104157611040610fd8565b5b600182019050919050565b7f4f6e6c7920667265656c616e63657200000000000000000000000000000000005f82015250565b5f611080600f83610d36565b915061108b8261104c565b602082019050919050565b5f6020820190508181035f8301526110ad81611074565b9050919050565b7f4e6f7420706169640000000000000000000000000000000000000000000000005f82015250565b5f6110e8600883610d36565b91506110f3826110b4565b602082019050919050565b5f6020820190508181035f830152611115816110dc565b9050919050565b7f416c726561647920636c61696d656400000000000000000000000000000000005f82015250565b5f611150600f83610d36565b915061115b8261111c565b602082019050919050565b5f6020820190508181035f83015261117d81611144565b9050919050565b5f6040820190506111975f830185610c5f565b6111a46020830184610a83565b9392505050565b7f436c61696d206661696c656400000000000000000000000000000000000000005f82015250565b5f6111df600c83610d36565b91506111ea826111ab565b602082019050919050565b5f6020820190508181035f83015261120c816111d3565b905091905056fea26469706673582212200275487978eb1bd7a31e3b42e973b097f3fb8303e5a0bd843de8d28a6547deac64736f6c634300081e0033",
					"opcodes": "PUSH1 0xA0 PUSH1 0x40 MSTORE CALLVALUE DUP1 ISZERO PUSH2 0xF JUMPI PUSH0 PUSH0 REVERT JUMPDEST POP PUSH1 0x40 MLOAD PUSH2 0x1363 CODESIZE SUB DUP1 PUSH2 0x1363 DUP4 CODECOPY DUP2 DUP2 ADD PUSH1 0x40 MSTORE DUP2 ADD SWAP1 PUSH2 0x31 SWAP2 SWAP1 PUSH2 0xC9 JUMP JUMPDEST DUP1 PUSH20 0xFFFFFFFFFFFFFFFFFFFFFFFFFFFFFFFFFFFFFFFF AND PUSH1 0x80 DUP2 PUSH20 0xFFFFFFFFFFFFFFFFFFFFFFFFFFFFFFFFFFFFFFFF AND DUP2 MSTORE POP POP POP PUSH2 0xF4 JUMP JUMPDEST PUSH0 PUSH0 REVERT JUMPDEST PUSH0 PUSH20 0xFFFFFFFFFFFFFFFFFFFFFFFFFFFFFFFFFFFFFFFF DUP3 AND SWAP1 POP SWAP2 SWAP1 POP JUMP JUMPDEST PUSH0 PUSH2 0x98 DUP3 PUSH2 0x6F JUMP JUMPDEST SWAP1 POP SWAP2 SWAP1 POP JUMP JUMPDEST PUSH2 0xA8 DUP2 PUSH2 0x8E JUMP JUMPDEST DUP2 EQ PUSH2 0xB2 JUMPI PUSH0 PUSH0 REVERT JUMPDEST POP JUMP JUMPDEST PUSH0 DUP2 MLOAD SWAP1 POP PUSH2 0xC3 DUP2 PUSH2 0x9F JUMP JUMPDEST SWAP3 SWAP2 POP POP JUMP JUMPDEST PUSH0 PUSH1 0x20 DUP3 DUP5 SUB SLT ISZERO PUSH2 0xDE JUMPI PUSH2 0xDD PUSH2 0x6B JUMP JUMPDEST JUMPDEST PUSH0 PUSH2 0xEB DUP5 DUP3 DUP6 ADD PUSH2 0xB5 JUMP JUMPDEST SWAP2 POP POP SWAP3 SWAP2 POP POP JUMP JUMPDEST PUSH1 0x80 MLOAD PUSH2 0x1249 PUSH2 0x11A PUSH0 CODECOPY PUSH0 DUP2 DUP2 PUSH2 0x17B ADD MSTORE DUP2 DUP2 PUSH2 0x42E ADD MSTORE PUSH2 0x904 ADD MSTORE PUSH2 0x1249 PUSH0 RETURN INVALID PUSH1 0x80 PUSH1 0x40 MSTORE CALLVALUE DUP1 ISZERO PUSH2 0xF JUMPI PUSH0 PUSH0 REVERT JUMPDEST POP PUSH1 0x4 CALLDATASIZE LT PUSH2 0x7B JUMPI PUSH0 CALLDATALOAD PUSH1 0xE0 SHR DUP1 PUSH4 0x4E6D1405 GT PUSH2 0x59 JUMPI DUP1 PUSH4 0x4E6D1405 EQ PUSH2 0xEB JUMPI DUP1 PUSH4 0xAC60A6CD EQ PUSH2 0x11F JUMPI DUP1 PUSH4 0xB0958532 EQ PUSH2 0x13B JUMPI DUP1 PUSH4 0xC08B5808 EQ PUSH2 0x157 JUMPI PUSH2 0x7B JUMP JUMPDEST DUP1 PUSH4 0x1346F0C4 EQ PUSH2 0x7F JUMPI DUP1 PUSH4 0x1FCCF672 EQ PUSH2 0x9D JUMPI DUP1 PUSH4 0x3A23CC0A EQ PUSH2 0xBB JUMPI JUMPDEST PUSH0 PUSH0 REVERT JUMPDEST PUSH2 0x87 PUSH2 0x173 JUMP JUMPDEST PUSH1 0x40 MLOAD PUSH2 0x94 SWAP2 SWAP1 PUSH2 0xA92 JUMP JUMPDEST PUSH1 0x40 MLOAD DUP1 SWAP2 SUB SWAP1 RETURN JUMPDEST PUSH2 0xA5 PUSH2 0x179 JUMP JUMPDEST PUSH1 0x40 MLOAD PUSH2 0xB2 SWAP2 SWAP1 PUSH2 0xB25 JUMP JUMPDEST PUSH1 0x40 MLOAD DUP1 SWAP2 SUB SWAP1 RETURN JUMPDEST PUSH2 0xD5 PUSH1 0x4 DUP1 CALLDATASIZE SUB DUP2 ADD SWAP1 PUSH2 0xD0 SWAP2 SWAP1 PUSH2 0xB6C JUMP JUMPDEST PUSH2 0x19D JUMP JUMPDEST PUSH1 0x40 MLOAD PUSH2 0xE2 SWAP2 SWAP1 PUSH2 0xC46 JUMP JUMPDEST PUSH1 0x40 MLOAD DUP1 SWAP2 SUB SWAP1 RETURN JUMPDEST PUSH2 0x105 PUSH1 0x4 DUP1 CALLDATASIZE SUB DUP2 ADD SWAP1 PUSH2 0x100 SWAP2 SWAP1 PUSH2 0xB6C JUMP JUMPDEST PUSH2 0x2AF JUMP JUMPDEST PUSH1 0x40 MLOAD PUSH2 0x116 SWAP6 SWAP5 SWAP4 SWAP3 SWAP2 SWAP1 PUSH2 0xC7D JUMP JUMPDEST PUSH1 0x40 MLOAD DUP1 SWAP2 SUB SWAP1 RETURN JUMPDEST PUSH2 0x139 PUSH1 0x4 DUP1 CALLDATASIZE SUB DUP2 ADD SWAP1 PUSH2 0x134 SWAP2 SWAP1 PUSH2 0xB6C JUMP JUMPDEST PUSH2 0x337 JUMP JUMPDEST STOP JUMPDEST PUSH2 0x155 PUSH1 0x4 DUP1 CALLDATASIZE SUB DUP2 ADD SWAP1 PUSH2 0x150 SWAP2 SWAP1 PUSH2 0xCF8 JUMP JUMPDEST PUSH2 0x559 JUMP JUMPDEST STOP JUMPDEST PUSH2 0x171 PUSH1 0x4 DUP1 CALLDATASIZE SUB DUP2 ADD SWAP1 PUSH2 0x16C SWAP2 SWAP1 PUSH2 0xB6C JUMP JUMPDEST PUSH2 0x7A0 JUMP JUMPDEST STOP JUMPDEST PUSH1 0x1 SLOAD DUP2 JUMP JUMPDEST PUSH32 0x0 DUP2 JUMP JUMPDEST PUSH2 0x1A5 PUSH2 0xA20 JUMP JUMPDEST PUSH0 PUSH0 DUP4 DUP2 MSTORE PUSH1 0x20 ADD SWAP1 DUP2 MSTORE PUSH1 0x20 ADD PUSH0 KECCAK256 PUSH1 0x40 MLOAD DUP1 PUSH1 0xA0 ADD PUSH1 0x40 MSTORE SWAP1 DUP2 PUSH0 DUP3 ADD PUSH0 SWAP1 SLOAD SWAP1 PUSH2 0x100 EXP SWAP1 DIV PUSH20 0xFFFFFFFFFFFFFFFFFFFFFFFFFFFFFFFFFFFFFFFF AND PUSH20 0xFFFFFFFFFFFFFFFFFFFFFFFFFFFFFFFFFFFFFFFF AND PUSH20 0xFFFFFFFFFFFFFFFFFFFFFFFFFFFFFFFFFFFFFFFF AND DUP2 MSTORE PUSH1 0x20 ADD PUSH1 0x1 DUP3 ADD PUSH0 SWAP1 SLOAD SWAP1 PUSH2 0x100 EXP SWAP1 DIV PUSH20 0xFFFFFFFFFFFFFFFFFFFFFFFFFFFFFFFFFFFFFFFF AND PUSH20 0xFFFFFFFFFFFFFFFFFFFFFFFFFFFFFFFFFFFFFFFF AND PUSH20 0xFFFFFFFFFFFFFFFFFFFFFFFFFFFFFFFFFFFFFFFF AND DUP2 MSTORE PUSH1 0x20 ADD PUSH1 0x2 DUP3 ADD SLOAD DUP2 MSTORE PUSH1 0x20 ADD PUSH1 0x3 DUP3 ADD PUSH0 SWAP1 SLOAD SWAP1 PUSH2 0x100 EXP SWAP1 DIV PUSH1 0xFF AND ISZERO ISZERO ISZERO ISZERO DUP2 MSTORE PUSH1 0x20 ADD PUSH1 0x3 DUP3 ADD PUSH1 0x1 SWAP1 SLOAD SWAP1 PUSH2 0x100 EXP SWAP1 DIV PUSH1 0xFF AND ISZERO ISZERO ISZERO ISZERO DUP2 MSTORE POP POP SWAP1 POP SWAP2 SWAP1 POP JUMP JUMPDEST PUSH0 PUSH1 0x20 MSTORE DUP1 PUSH0 MSTORE PUSH1 0x40 PUSH0 KECCAK256 PUSH0 SWAP2 POP SWAP1 POP DUP1 PUSH0 ADD PUSH0 SWAP1 SLOAD SWAP1 PUSH2 0x100 EXP SWAP1 DIV PUSH20 0xFFFFFFFFFFFFFFFFFFFFFFFFFFFFFFFFFFFFFFFF AND SWAP1 DUP1 PUSH1 0x1 ADD PUSH0 SWAP1 SLOAD SWAP1 PUSH2 0x100 EXP SWAP1 DIV PUSH20 0xFFFFFFFFFFFFFFFFFFFFFFFFFFFFFFFFFFFFFFFF AND SWAP1 DUP1 PUSH1 0x2 ADD SLOAD SWAP1 DUP1 PUSH1 0x3 ADD PUSH0 SWAP1 SLOAD SWAP1 PUSH2 0x100 EXP SWAP1 DIV PUSH1 0xFF AND SWAP1 DUP1 PUSH1 0x3 ADD PUSH1 0x1 SWAP1 SLOAD SWAP1 PUSH2 0x100 EXP SWAP1 DIV PUSH1 0xFF AND SWAP1 POP DUP6 JUMP JUMPDEST PUSH0 PUSH0 PUSH0 DUP4 DUP2 MSTORE PUSH1 0x20 ADD SWAP1 DUP2 MSTORE PUSH1 0x20 ADD PUSH0 KECCAK256 SWAP1 POP DUP1 PUSH1 0x1 ADD PUSH0 SWAP1 SLOAD SWAP1 PUSH2 0x100 EXP SWAP1 DIV PUSH20 0xFFFFFFFFFFFFFFFFFFFFFFFFFFFFFFFFFFFFFFFF AND PUSH20 0xFFFFFFFFFFFFFFFFFFFFFFFFFFFFFFFFFFFFFFFF AND CALLER PUSH20 0xFFFFFFFFFFFFFFFFFFFFFFFFFFFFFFFFFFFFFFFF AND EQ PUSH2 0x3DB JUMPI PUSH1 0x40 MLOAD PUSH32 0x8C379A000000000000000000000000000000000000000000000000000000000 DUP2 MSTORE PUSH1 0x4 ADD PUSH2 0x3D2 SWAP1 PUSH2 0xD90 JUMP JUMPDEST PUSH1 0x40 MLOAD DUP1 SWAP2 SUB SWAP1 REVERT JUMPDEST DUP1 PUSH1 0x3 ADD PUSH0 SWAP1 SLOAD SWAP1 PUSH2 0x100 EXP SWAP1 DIV PUSH1 0xFF AND ISZERO PUSH2 0x42C JUMPI PUSH1 0x40 MLOAD PUSH32 0x8C379A000000000000000000000000000000000000000000000000000000000 DUP2 MSTORE PUSH1 0x4 ADD PUSH2 0x423 SWAP1 PUSH2 0xDF8 JUMP JUMPDEST PUSH1 0x40 MLOAD DUP1 SWAP2 SUB SWAP1 REVERT JUMPDEST PUSH32 0x0 PUSH20 0xFFFFFFFFFFFFFFFFFFFFFFFFFFFFFFFFFFFFFFFF AND PUSH4 0x23B872DD CALLER ADDRESS DUP5 PUSH1 0x2 ADD SLOAD PUSH1 0x40 MLOAD DUP5 PUSH4 0xFFFFFFFF AND PUSH1 0xE0 SHL DUP2 MSTORE PUSH1 0x4 ADD PUSH2 0x48D SWAP4 SWAP3 SWAP2 SWAP1 PUSH2 0xE16 JUMP JUMPDEST PUSH1 0x20 PUSH1 0x40 MLOAD DUP1 DUP4 SUB DUP2 PUSH0 DUP8 GAS CALL ISZERO DUP1 ISZERO PUSH2 0x4A9 JUMPI RETURNDATASIZE PUSH0 PUSH0 RETURNDATACOPY RETURNDATASIZE PUSH0 REVERT JUMPDEST POP POP POP POP PUSH1 0x40 MLOAD RETURNDATASIZE PUSH1 0x1F NOT PUSH1 0x1F DUP3 ADD AND DUP3 ADD DUP1 PUSH1 0x40 MSTORE POP DUP2 ADD SWAP1 PUSH2 0x4CD SWAP2 SWAP1 PUSH2 0xE75 JUMP JUMPDEST PUSH2 0x50C JUMPI PUSH1 0x40 MLOAD PUSH32 0x8C379A000000000000000000000000000000000000000000000000000000000 DUP2 MSTORE PUSH1 0x4 ADD PUSH2 0x503 SWAP1 PUSH2 0xEEA JUMP JUMPDEST PUSH1 0x40 MLOAD DUP1 SWAP2 SUB SWAP1 REVERT JUMPDEST PUSH1 0x1 DUP2 PUSH1 0x3 ADD PUSH0 PUSH2 0x100 EXP DUP2 SLOAD DUP2 PUSH1 0xFF MUL NOT AND SWAP1 DUP4 ISZERO ISZERO MUL OR SWAP1 SSTORE POP DUP2 PUSH32 0x4D6CFD329415806D53DB8988CD3C035F681754C229F8D7E5183507DEAE65CC16 PUSH1 0x40 MLOAD PUSH1 0x40 MLOAD DUP1 SWAP2 SUB SWAP1 LOG2 POP POP JUMP JUMPDEST PUSH0 PUSH20 0xFFFFFFFFFFFFFFFFFFFFFFFFFFFFFFFFFFFFFFFF AND DUP3 PUSH20 0xFFFFFFFFFFFFFFFFFFFFFFFFFFFFFFFFFFFFFFFF AND SUB PUSH2 0x5C7 JUMPI PUSH1 0x40 MLOAD PUSH32 0x8C379A000000000000000000000000000000000000000000000000000000000 DUP2 MSTORE PUSH1 0x4 ADD PUSH2 0x5BE SWAP1 PUSH2 0xF52 JUMP JUMPDEST PUSH1 0x40 MLOAD DUP1 SWAP2 SUB SWAP1 REVERT JUMPDEST PUSH0 DUP2 GT PUSH2 0x609 JUMPI PUSH1 0x40 MLOAD PUSH32 0x8C379A000000000000000000000000000000000000000000000000000000000 DUP2 MSTORE PUSH1 0x4 ADD PUSH2 0x600 SWAP1 PUSH2 0xFBA JUMP JUMPDEST PUSH1 0x40 MLOAD DUP1 SWAP2 SUB SWAP1 REVERT JUMPDEST PUSH0 PUSH1 0x1 PUSH0 DUP2 SLOAD DUP1 SWAP3 SWAP2 SWAP1 PUSH2 0x61C SWAP1 PUSH2 0x1005 JUMP JUMPDEST SWAP2 SWAP1 POP SSTORE SWAP1 POP PUSH1 0x40 MLOAD DUP1 PUSH1 0xA0 ADD PUSH1 0x40 MSTORE DUP1 CALLER PUSH20 0xFFFFFFFFFFFFFFFFFFFFFFFFFFFFFFFFFFFFFFFF AND DUP2 MSTORE PUSH1 0x20 ADD DUP5 PUSH20 0xFFFFFFFFFFFFFFFFFFFFFFFFFFFFFFFFFFFFFFFF AND DUP2 MSTORE PUSH1 0x20 ADD DUP4 DUP2 MSTORE PUSH1 0x20 ADD PUSH0 ISZERO ISZERO DUP2 MSTORE PUSH1 0x20 ADD PUSH0 ISZERO ISZERO DUP2 MSTORE POP PUSH0 PUSH0 DUP4 DUP2 MSTORE PUSH1 0x20 ADD SWAP1 DUP2 MSTORE PUSH1 0x20 ADD PUSH0 KECCAK256 PUSH0 DUP3 ADD MLOAD DUP2 PUSH0 ADD PUSH0 PUSH2 0x100 EXP DUP2 SLOAD DUP2 PUSH20 0xFFFFFFFFFFFFFFFFFFFFFFFFFFFFFFFFFFFFFFFF MUL NOT AND SWAP1 DUP4 PUSH20 0xFFFFFFFFFFFFFFFFFFFFFFFFFFFFFFFFFFFFFFFF AND MUL OR SWAP1 SSTORE POP PUSH1 0x20 DUP3 ADD MLOAD DUP2 PUSH1 0x1 ADD PUSH0 PUSH2 0x100 EXP DUP2 SLOAD DUP2 PUSH20 0xFFFFFFFFFFFFFFFFFFFFFFFFFFFFFFFFFFFFFFFF MUL NOT AND SWAP1 DUP4 PUSH20 0xFFFFFFFFFFFFFFFFFFFFFFFFFFFFFFFFFFFFFFFF AND MUL OR SWAP1 SSTORE POP PUSH1 0x40 DUP3 ADD MLOAD DUP2 PUSH1 0x2 ADD SSTORE PUSH1 0x60 DUP3 ADD MLOAD DUP2 PUSH1 0x3 ADD PUSH0 PUSH2 0x100 EXP DUP2 SLOAD DUP2 PUSH1 0xFF MUL NOT AND SWAP1 DUP4 ISZERO ISZERO MUL OR SWAP1 SSTORE POP PUSH1 0x80 DUP3 ADD MLOAD DUP2 PUSH1 0x3 ADD PUSH1 0x1 PUSH2 0x100 EXP DUP2 SLOAD DUP2 PUSH1 0xFF MUL NOT AND SWAP1 DUP4 ISZERO ISZERO MUL OR SWAP1 SSTORE POP SWAP1 POP POP DUP1 PUSH32 0x88721ABB1D35CFF296C5D462601D6BDFED57E9493F8C361D2BCC24241A2EBFEC CALLER DUP6 DUP6 PUSH1 0x40 MLOAD PUSH2 0x793 SWAP4 SWAP3 SWAP2 SWAP1 PUSH2 0xE16 JUMP JUMPDEST PUSH1 0x40 MLOAD DUP1 SWAP2 SUB SWAP1 LOG2 POP POP POP JUMP JUMPDEST PUSH0 PUSH0 PUSH0 DUP4 DUP2 MSTORE PUSH1 0x20 ADD SWAP1 DUP2 MSTORE PUSH1 0x20 ADD PUSH0 KECCAK256 SWAP1 POP DUP1 PUSH0 ADD PUSH0 SWAP1 SLOAD SWAP1 PUSH2 0x100 EXP SWAP1 DIV PUSH20 0xFFFFFFFFFFFFFFFFFFFFFFFFFFFFFFFFFFFFFFFF AND PUSH20 0xFFFFFFFFFFFFFFFFFFFFFFFFFFFFFFFFFFFFFFFF AND CALLER PUSH20 0xFFFFFFFFFFFFFFFFFFFFFFFFFFFFFFFFFFFFFFFF AND EQ PUSH2 0x843 JUMPI PUSH1 0x40 MLOAD PUSH32 0x8C379A000000000000000000000000000000000000000000000000000000000 DUP2 MSTORE PUSH1 0x4 ADD PUSH2 0x83A SWAP1 PUSH2 0x1096 JUMP JUMPDEST PUSH1 0x40 MLOAD DUP1 SWAP2 SUB SWAP1 REVERT JUMPDEST DUP1 PUSH1 0x3 ADD PUSH0 SWAP1 SLOAD SWAP1 PUSH2 0x100 EXP SWAP1 DIV PUSH1 0xFF AND PUSH2 0x893 JUMPI PUSH1 0x40 MLOAD PUSH32 0x8C379A000000000000000000000000000000000000000000000000000000000 DUP2 MSTORE PUSH1 0x4 ADD PUSH2 0x88A SWAP1 PUSH2 0x10FE JUMP JUMPDEST PUSH1 0x40 MLOAD DUP1 SWAP2 SUB SWAP1 REVERT JUMPDEST DUP1 PUSH1 0x3 ADD PUSH1 0x1 SWAP1 SLOAD SWAP1 PUSH2 0x100 EXP SWAP1 DIV PUSH1 0xFF AND ISZERO PUSH2 0x8E5 JUMPI PUSH1 0x40 MLOAD PUSH32 0x8C379A000000000000000000000000000000000000000000000000000000000 DUP2 MSTORE PUSH1 0x4 ADD PUSH2 0x8DC SWAP1 PUSH2 0x1166 JUMP JUMPDEST PUSH1 0x40 MLOAD DUP1 SWAP2 SUB SWAP1 REVERT JUMPDEST PUSH1 0x1 DUP2 PUSH1 0x3 ADD PUSH1 0x1 PUSH2 0x100 EXP DUP2 SLOAD DUP2 PUSH1 0xFF MUL NOT AND SWAP1 DUP4 ISZERO ISZERO MUL OR SWAP1 SSTORE POP PUSH32 0x0 PUSH20 0xFFFFFFFFFFFFFFFFFFFFFFFFFFFFFFFFFFFFFFFF AND PUSH4 0xA9059CBB CALLER DUP4 PUSH1 0x2 ADD SLOAD PUSH1 0x40 MLOAD DUP4 PUSH4 0xFFFFFFFF AND PUSH1 0xE0 SHL DUP2 MSTORE PUSH1 0x4 ADD PUSH2 0x961 SWAP3 SWAP2 SWAP1 PUSH2 0x1184 JUMP JUMPDEST PUSH1 0x20 PUSH1 0x40 MLOAD DUP1 DUP4 SUB DUP2 PUSH0 DUP8 GAS CALL ISZERO DUP1 ISZERO PUSH2 0x97D JUMPI RETURNDATASIZE PUSH0 PUSH0 RETURNDATACOPY RETURNDATASIZE PUSH0 REVERT JUMPDEST POP POP POP POP PUSH1 0x40 MLOAD RETURNDATASIZE PUSH1 0x1F NOT PUSH1 0x1F DUP3 ADD AND DUP3 ADD DUP1 PUSH1 0x40 MSTORE POP DUP2 ADD SWAP1 PUSH2 0x9A1 SWAP2 SWAP1 PUSH2 0xE75 JUMP JUMPDEST PUSH2 0x9E0 JUMPI PUSH1 0x40 MLOAD PUSH32 0x8C379A000000000000000000000000000000000000000000000000000000000 DUP2 MSTORE PUSH1 0x4 ADD PUSH2 0x9D7 SWAP1 PUSH2 0x11F5 JUMP JUMPDEST PUSH1 0x40 MLOAD DUP1 SWAP2 SUB SWAP1 REVERT JUMPDEST DUP2 PUSH32 0x92E5F75781876B7AF9B7B392DFDBDC58E0807F7D3D506B918EB86EAE87DA9F92 DUP3 PUSH1 0x2 ADD SLOAD PUSH1 0x40 MLOAD PUSH2 0xA14 SWAP2 SWAP1 PUSH2 0xA92 JUMP JUMPDEST PUSH1 0x40 MLOAD DUP1 SWAP2 SUB SWAP1 LOG2 POP POP JUMP JUMPDEST PUSH1 0x40 MLOAD DUP1 PUSH1 0xA0 ADD PUSH1 0x40 MSTORE DUP1 PUSH0 PUSH20 0xFFFFFFFFFFFFFFFFFFFFFFFFFFFFFFFFFFFFFFFF AND DUP2 MSTORE PUSH1 0x20 ADD PUSH0 PUSH20 0xFFFFFFFFFFFFFFFFFFFFFFFFFFFFFFFFFFFFFFFF AND DUP2 MSTORE PUSH1 0x20 ADD PUSH0 DUP2 MSTORE PUSH1 0x20 ADD PUSH0 ISZERO ISZERO DUP2 MSTORE PUSH1 0x20 ADD PUSH0 ISZERO ISZERO DUP2 MSTORE POP SWAP1 JUMP JUMPDEST PUSH0 DUP2 SWAP1 POP SWAP2 SWAP1 POP JUMP JUMPDEST PUSH2 0xA8C DUP2 PUSH2 0xA7A JUMP JUMPDEST DUP3 MSTORE POP POP JUMP JUMPDEST PUSH0 PUSH1 0x20 DUP3 ADD SWAP1 POP PUSH2 0xAA5 PUSH0 DUP4 ADD DUP5 PUSH2 0xA83 JUMP JUMPDEST SWAP3 SWAP2 POP POP JUMP JUMPDEST PUSH0 PUSH20 0xFFFFFFFFFFFFFFFFFFFFFFFFFFFFFFFFFFFFFFFF DUP3 AND SWAP1 POP SWAP2 SWAP1 POP JUMP JUMPDEST PUSH0 DUP2 SWAP1 POP SWAP2 SWAP1 POP JUMP JUMPDEST PUSH0 PUSH2 0xAED PUSH2 0xAE8 PUSH2 0xAE3 DUP5 PUSH2 0xAAB JUMP JUMPDEST PUSH2 0xACA JUMP JUMPDEST PUSH2 0xAAB JUMP JUMPDEST SWAP1 POP SWAP2 SWAP1 POP JUMP JUMPDEST PUSH0 PUSH2 0xAFE DUP3 PUSH2 0xAD3 JUMP JUMPDEST SWAP1 POP SWAP2 SWAP1 POP JUMP JUMPDEST PUSH0 PUSH2 0xB0F DUP3 PUSH2 0xAF4 JUMP JUMPDEST SWAP1 POP SWAP2 SWAP1 POP JUMP JUMPDEST PUSH2 0xB1F DUP2 PUSH2 0xB05 JUMP JUMPDEST DUP3 MSTORE POP POP JUMP JUMPDEST PUSH0 PUSH1 0x20 DUP3 ADD SWAP1 POP PUSH2 0xB38 PUSH0 DUP4 ADD DUP5 PUSH2 0xB16 JUMP JUMPDEST SWAP3 SWAP2 POP POP JUMP JUMPDEST PUSH0 PUSH0 REVERT JUMPDEST PUSH2 0xB4B DUP2 PUSH2 0xA7A JUMP JUMPDEST DUP2 EQ PUSH2 0xB55 JUMPI PUSH0 PUSH0 REVERT JUMPDEST POP JUMP JUMPDEST PUSH0 DUP2 CALLDATALOAD SWAP1 POP PUSH2 0xB66 DUP2 PUSH2 0xB42 JUMP JUMPDEST SWAP3 SWAP2 POP POP JUMP JUMPDEST PUSH0 PUSH1 0x20 DUP3 DUP5 SUB SLT ISZERO PUSH2 0xB81 JUMPI PUSH2 0xB80 PUSH2 0xB3E JUMP JUMPDEST JUMPDEST PUSH0 PUSH2 0xB8E DUP5 DUP3 DUP6 ADD PUSH2 0xB58 JUMP JUMPDEST SWAP2 POP POP SWAP3 SWAP2 POP POP JUMP JUMPDEST PUSH0 PUSH2 0xBA1 DUP3 PUSH2 0xAAB JUMP JUMPDEST SWAP1 POP SWAP2 SWAP1 POP JUMP JUMPDEST PUSH2 0xBB1 DUP2 PUSH2 0xB97 JUMP JUMPDEST DUP3 MSTORE POP POP JUMP JUMPDEST PUSH2 0xBC0 DUP2 PUSH2 0xA7A JUMP JUMPDEST DUP3 MSTORE POP POP JUMP JUMPDEST PUSH0 DUP2 ISZERO ISZERO SWAP1 POP SWAP2 SWAP1 POP JUMP JUMPDEST PUSH2 0xBDA DUP2 PUSH2 0xBC6 JUMP JUMPDEST DUP3 MSTORE POP POP JUMP JUMPDEST PUSH1 0xA0 DUP3 ADD PUSH0 DUP3 ADD MLOAD PUSH2 0xBF4 PUSH0 DUP6 ADD DUP3 PUSH2 0xBA8 JUMP JUMPDEST POP PUSH1 0x20 DUP3 ADD MLOAD PUSH2 0xC07 PUSH1 0x20 DUP6 ADD DUP3 PUSH2 0xBA8 JUMP JUMPDEST POP PUSH1 0x40 DUP3 ADD MLOAD PUSH2 0xC1A PUSH1 0x40 DUP6 ADD DUP3 PUSH2 0xBB7 JUMP JUMPDEST POP PUSH1 0x60 DUP3 ADD MLOAD PUSH2 0xC2D PUSH1 0x60 DUP6 ADD DUP3 PUSH2 0xBD1 JUMP JUMPDEST POP PUSH1 0x80 DUP3 ADD MLOAD PUSH2 0xC40 PUSH1 0x80 DUP6 ADD DUP3 PUSH2 0xBD1 JUMP JUMPDEST POP POP POP POP JUMP JUMPDEST PUSH0 PUSH1 0xA0 DUP3 ADD SWAP1 POP PUSH2 0xC59 PUSH0 DUP4 ADD DUP5 PUSH2 0xBE0 JUMP JUMPDEST SWAP3 SWAP2 POP POP JUMP JUMPDEST PUSH2 0xC68 DUP2 PUSH2 0xB97 JUMP JUMPDEST DUP3 MSTORE POP POP JUMP JUMPDEST PUSH2 0xC77 DUP2 PUSH2 0xBC6 JUMP JUMPDEST DUP3 MSTORE POP POP JUMP JUMPDEST PUSH0 PUSH1 0xA0 DUP3 ADD SWAP1 POP PUSH2 0xC90 PUSH0 DUP4 ADD DUP9 PUSH2 0xC5F JUMP JUMPDEST PUSH2 0xC9D PUSH1 0x20 DUP4 ADD DUP8 PUSH2 0xC5F JUMP JUMPDEST PUSH2 0xCAA PUSH1 0x40 DUP4 ADD DUP7 PUSH2 0xA83 JUMP JUMPDEST PUSH2 0xCB7 PUSH1 0x60 DUP4 ADD DUP6 PUSH2 0xC6E JUMP JUMPDEST PUSH2 0xCC4 PUSH1 0x80 DUP4 ADD DUP5 PUSH2 0xC6E JUMP JUMPDEST SWAP7 SWAP6 POP POP POP POP POP POP JUMP JUMPDEST PUSH2 0xCD7 DUP2 PUSH2 0xB97 JUMP JUMPDEST DUP2 EQ PUSH2 0xCE1 JUMPI PUSH0 PUSH0 REVERT JUMPDEST POP JUMP JUMPDEST PUSH0 DUP2 CALLDATALOAD SWAP1 POP PUSH2 0xCF2 DUP2 PUSH2 0xCCE JUMP JUMPDEST SWAP3 SWAP2 POP POP JUMP JUMPDEST PUSH0 PUSH0 PUSH1 0x40 DUP4 DUP6 SUB SLT ISZERO PUSH2 0xD0E JUMPI PUSH2 0xD0D PUSH2 0xB3E JUMP JUMPDEST JUMPDEST PUSH0 PUSH2 0xD1B DUP6 DUP3 DUP7 ADD PUSH2 0xCE4 JUMP JUMPDEST SWAP3 POP POP PUSH1 0x20 PUSH2 0xD2C DUP6 DUP3 DUP7 ADD PUSH2 0xB58 JUMP JUMPDEST SWAP2 POP POP SWAP3 POP SWAP3 SWAP1 POP JUMP JUMPDEST PUSH0 DUP3 DUP3 MSTORE PUSH1 0x20 DUP3 ADD SWAP1 POP SWAP3 SWAP2 POP POP JUMP JUMPDEST PUSH32 0x4F6E6C7920636C69656E74000000000000000000000000000000000000000000 PUSH0 DUP3 ADD MSTORE POP JUMP JUMPDEST PUSH0 PUSH2 0xD7A PUSH1 0xB DUP4 PUSH2 0xD36 JUMP JUMPDEST SWAP2 POP PUSH2 0xD85 DUP3 PUSH2 0xD46 JUMP JUMPDEST PUSH1 0x20 DUP3 ADD SWAP1 POP SWAP2 SWAP1 POP JUMP JUMPDEST PUSH0 PUSH1 0x20 DUP3 ADD SWAP1 POP DUP2 DUP2 SUB PUSH0 DUP4 ADD MSTORE PUSH2 0xDA7 DUP2 PUSH2 0xD6E JUMP JUMPDEST SWAP1 POP SWAP2 SWAP1 POP JUMP JUMPDEST PUSH32 0x416C726561647920706169640000000000000000000000000000000000000000 PUSH0 DUP3 ADD MSTORE POP JUMP JUMPDEST PUSH0 PUSH2 0xDE2 PUSH1 0xC DUP4 PUSH2 0xD36 JUMP JUMPDEST SWAP2 POP PUSH2 0xDED DUP3 PUSH2 0xDAE JUMP JUMPDEST PUSH1 0x20 DUP3 ADD SWAP1 POP SWAP2 SWAP1 POP JUMP JUMPDEST PUSH0 PUSH1 0x20 DUP3 ADD SWAP1 POP DUP2 DUP2 SUB PUSH0 DUP4 ADD MSTORE PUSH2 0xE0F DUP2 PUSH2 0xDD6 JUMP JUMPDEST SWAP1 POP SWAP2 SWAP1 POP JUMP JUMPDEST PUSH0 PUSH1 0x60 DUP3 ADD SWAP1 POP PUSH2 0xE29 PUSH0 DUP4 ADD DUP7 PUSH2 0xC5F JUMP JUMPDEST PUSH2 0xE36 PUSH1 0x20 DUP4 ADD DUP6 PUSH2 0xC5F JUMP JUMPDEST PUSH2 0xE43 PUSH1 0x40 DUP4 ADD DUP5 PUSH2 0xA83 JUMP JUMPDEST SWAP5 SWAP4 POP POP POP POP JUMP JUMPDEST PUSH2 0xE54 DUP2 PUSH2 0xBC6 JUMP JUMPDEST DUP2 EQ PUSH2 0xE5E JUMPI PUSH0 PUSH0 REVERT JUMPDEST POP JUMP JUMPDEST PUSH0 DUP2 MLOAD SWAP1 POP PUSH2 0xE6F DUP2 PUSH2 0xE4B JUMP JUMPDEST SWAP3 SWAP2 POP POP JUMP JUMPDEST PUSH0 PUSH1 0x20 DUP3 DUP5 SUB SLT ISZERO PUSH2 0xE8A JUMPI PUSH2 0xE89 PUSH2 0xB3E JUMP JUMPDEST JUMPDEST PUSH0 PUSH2 0xE97 DUP5 DUP3 DUP6 ADD PUSH2 0xE61 JUMP JUMPDEST SWAP2 POP POP SWAP3 SWAP2 POP POP JUMP JUMPDEST PUSH32 0x5472616E73666572206661696C65640000000000000000000000000000000000 PUSH0 DUP3 ADD MSTORE POP JUMP JUMPDEST PUSH0 PUSH2 0xED4 PUSH1 0xF DUP4 PUSH2 0xD36 JUMP JUMPDEST SWAP2 POP PUSH2 0xEDF DUP3 PUSH2 0xEA0 JUMP JUMPDEST PUSH1 0x20 DUP3 ADD SWAP1 POP SWAP2 SWAP1 POP JUMP JUMPDEST PUSH0 PUSH1 0x20 DUP3 ADD SWAP1 POP DUP2 DUP2 SUB PUSH0 DUP4 ADD MSTORE PUSH2 0xF01 DUP2 PUSH2 0xEC8 JUMP JUMPDEST SWAP1 POP SWAP2 SWAP1 POP JUMP JUMPDEST PUSH32 0x496E76616C696420636C69656E74000000000000000000000000000000000000 PUSH0 DUP3 ADD MSTORE POP JUMP JUMPDEST PUSH0 PUSH2 0xF3C PUSH1 0xE DUP4 PUSH2 0xD36 JUMP JUMPDEST SWAP2 POP PUSH2 0xF47 DUP3 PUSH2 0xF08 JUMP JUMPDEST PUSH1 0x20 DUP3 ADD SWAP1 POP SWAP2 SWAP1 POP JUMP JUMPDEST PUSH0 PUSH1 0x20 DUP3 ADD SWAP1 POP DUP2 DUP2 SUB PUSH0 DUP4 ADD MSTORE PUSH2 0xF69 DUP2 PUSH2 0xF30 JUMP JUMPDEST SWAP1 POP SWAP2 SWAP1 POP JUMP JUMPDEST PUSH32 0x416D6F756E74203E203000000000000000000000000000000000000000000000 PUSH0 DUP3 ADD MSTORE POP JUMP JUMPDEST PUSH0 PUSH2 0xFA4 PUSH1 0xA DUP4 PUSH2 0xD36 JUMP JUMPDEST SWAP2 POP PUSH2 0xFAF DUP3 PUSH2 0xF70 JUMP JUMPDEST PUSH1 0x20 DUP3 ADD SWAP1 POP SWAP2 SWAP1 POP JUMP JUMPDEST PUSH0 PUSH1 0x20 DUP3 ADD SWAP1 POP DUP2 DUP2 SUB PUSH0 DUP4 ADD MSTORE PUSH2 0xFD1 DUP2 PUSH2 0xF98 JUMP JUMPDEST SWAP1 POP SWAP2 SWAP1 POP JUMP JUMPDEST PUSH32 0x4E487B7100000000000000000000000000000000000000000000000000000000 PUSH0 MSTORE PUSH1 0x11 PUSH1 0x4 MSTORE PUSH1 0x24 PUSH0 REVERT JUMPDEST PUSH0 PUSH2 0x100F DUP3 PUSH2 0xA7A JUMP JUMPDEST SWAP2 POP PUSH32 0xFFFFFFFFFFFFFFFFFFFFFFFFFFFFFFFFFFFFFFFFFFFFFFFFFFFFFFFFFFFFFFFF DUP3 SUB PUSH2 0x1041 JUMPI PUSH2 0x1040 PUSH2 0xFD8 JUMP JUMPDEST JUMPDEST PUSH1 0x1 DUP3 ADD SWAP1 POP SWAP2 SWAP1 POP JUMP JUMPDEST PUSH32 0x4F6E6C7920667265656C616E6365720000000000000000000000000000000000 PUSH0 DUP3 ADD MSTORE POP JUMP JUMPDEST PUSH0 PUSH2 0x1080 PUSH1 0xF DUP4 PUSH2 0xD36 JUMP JUMPDEST SWAP2 POP PUSH2 0x108B DUP3 PUSH2 0x104C JUMP JUMPDEST PUSH1 0x20 DUP3 ADD SWAP1 POP SWAP2 SWAP1 POP JUMP JUMPDEST PUSH0 PUSH1 0x20 DUP3 ADD SWAP1 POP DUP2 DUP2 SUB PUSH0 DUP4 ADD MSTORE PUSH2 0x10AD DUP2 PUSH2 0x1074 JUMP JUMPDEST SWAP1 POP SWAP2 SWAP1 POP JUMP JUMPDEST PUSH32 0x4E6F742070616964000000000000000000000000000000000000000000000000 PUSH0 DUP3 ADD MSTORE POP JUMP JUMPDEST PUSH0 PUSH2 0x10E8 PUSH1 0x8 DUP4 PUSH2 0xD36 JUMP JUMPDEST SWAP2 POP PUSH2 0x10F3 DUP3 PUSH2 0x10B4 JUMP JUMPDEST PUSH1 0x20 DUP3 ADD SWAP1 POP SWAP2 SWAP1 POP JUMP JUMPDEST PUSH0 PUSH1 0x20 DUP3 ADD SWAP1 POP DUP2 DUP2 SUB PUSH0 DUP4 ADD MSTORE PUSH2 0x1115 DUP2 PUSH2 0x10DC JUMP JUMPDEST SWAP1 POP SWAP2 SWAP1 POP JUMP JUMPDEST PUSH32 0x416C726561647920636C61696D65640000000000000000000000000000000000 PUSH0 DUP3 ADD MSTORE POP JUMP JUMPDEST PUSH0 PUSH2 0x1150 PUSH1 0xF DUP4 PUSH2 0xD36 JUMP JUMPDEST SWAP2 POP PUSH2 0x115B DUP3 PUSH2 0x111C JUMP JUMPDEST PUSH1 0x20 DUP3 ADD SWAP1 POP SWAP2 SWAP1 POP JUMP JUMPDEST PUSH0 PUSH1 0x20 DUP3 ADD SWAP1 POP DUP2 DUP2 SUB PUSH0 DUP4 ADD MSTORE PUSH2 0x117D DUP2 PUSH2 0x1144 JUMP JUMPDEST SWAP1 POP SWAP2 SWAP1 POP JUMP JUMPDEST PUSH0 PUSH1 0x40 DUP3 ADD SWAP1 POP PUSH2 0x1197 PUSH0 DUP4 ADD DUP6 PUSH2 0xC5F JUMP JUMPDEST PUSH2 0x11A4 PUSH1 0x20 DUP4 ADD DUP5 PUSH2 0xA83 JUMP JUMPDEST SWAP4 SWAP3 POP POP POP JUMP JUMPDEST PUSH32 0x436C61696D206661696C65640000000000000000000000000000000000000000 PUSH0 DUP3 ADD MSTORE POP JUMP JUMPDEST PUSH0 PUSH2 0x11DF PUSH1 0xC DUP4 PUSH2 0xD36 JUMP JUMPDEST SWAP2 POP PUSH2 0x11EA DUP3 PUSH2 0x11AB JUMP JUMPDEST PUSH1 0x20 DUP3 ADD SWAP1 POP SWAP2 SWAP1 POP JUMP JUMPDEST PUSH0 PUSH1 0x20 DUP3 ADD SWAP1 POP DUP2 DUP2 SUB PUSH0 DUP4 ADD MSTORE PUSH2 0x120C DUP2 PUSH2 0x11D3 JUMP JUMPDEST SWAP1 POP SWAP2 SWAP1 POP JUMP INVALID LOG2 PUSH5 0x6970667358 0x22 SLT KECCAK256 MUL PUSH22 0x487978EB1BD7A31E3B42E973B097F3FB8303E5A0BD84 RETURNDATASIZE 0xE8 0xD2 DUP11 PUSH6 0x47DEAC64736F PUSH13 0x634300081E0033000000000000 "
				},
				"gasEstimates": {
					"creation": {
						"codeDepositCost": "936200",
						"executionCost": "infinite",
						"totalCost": "infinite"
					},
					"external": {
						"cUSD()": "infinite",
						"claimInvoice(uint256)": "infinite",
						"createInvoice(address,uint256)": "infinite",
						"getInvoice(uint256)": "infinite",
						"invoiceCount()": "2426",
						"invoices(uint256)": "infinite",
						"payInvoice(uint256)": "infinite"
					}
				},
				"methodIdentifiers": {
					"cUSD()": "1fccf672",
					"claimInvoice(uint256)": "c08b5808",
					"createInvoice(address,uint256)": "b0958532",
					"getInvoice(uint256)": "3a23cc0a",
					"invoiceCount()": "1346f0c4",
					"invoices(uint256)": "4e6d1405",
					"payInvoice(uint256)": "ac60a6cd"
				}
			},
			"storageLayout": {
				"storage": [
					{
						"astId": 99,
						"contract": "contracts/FreelancePayment.sol:FreelancePayment",
						"label": "invoices",
						"offset": 0,
						"slot": "0",
						"type": "t_mapping(t_uint256,t_struct(Invoice)94_storage)"
					},
					{
						"astId": 101,
						"contract": "contracts/FreelancePayment.sol:FreelancePayment",
						"label": "invoiceCount",
						"offset": 0,
						"slot": "1",
						"type": "t_uint256"
					}
				],
				"types": {
					"t_address": {
						"encoding": "inplace",
						"label": "address",
						"numberOfBytes": "20"
					},
					"t_bool": {
						"encoding": "inplace",
						"label": "bool",
						"numberOfBytes": "1"
					},
					"t_mapping(t_uint256,t_struct(Invoice)94_storage)": {
						"encoding": "mapping",
						"key": "t_uint256",
						"label": "mapping(uint256 => struct FreelancePayment.Invoice)",
						"numberOfBytes": "32",
						"value": "t_struct(Invoice)94_storage"
					},
					"t_struct(Invoice)94_storage": {
						"encoding": "inplace",
						"label": "struct FreelancePayment.Invoice",
						"members": [
							{
								"astId": 85,
								"contract": "contracts/FreelancePayment.sol:FreelancePayment",
								"label": "freelancer",
								"offset": 0,
								"slot": "0",
								"type": "t_address"
							},
							{
								"astId": 87,
								"contract": "contracts/FreelancePayment.sol:FreelancePayment",
								"label": "client",
								"offset": 0,
								"slot": "1",
								"type": "t_address"
							},
							{
								"astId": 89,
								"contract": "contracts/FreelancePayment.sol:FreelancePayment",
								"label": "amount",
								"offset": 0,
								"slot": "2",
								"type": "t_uint256"
							},
							{
								"astId": 91,
								"contract": "contracts/FreelancePayment.sol:FreelancePayment",
								"label": "paid",
								"offset": 0,
								"slot": "3",
								"type": "t_bool"
							},
							{
								"astId": 93,
								"contract": "contracts/FreelancePayment.sol:FreelancePayment",
								"label": "claimed",
								"offset": 1,
								"slot": "3",
								"type": "t_bool"
							}
						],
						"numberOfBytes": "128"
					},
					"t_uint256": {
						"encoding": "inplace",
						"label": "uint256",
						"numberOfBytes": "32"
					}
				}
			},
			"userdoc": {
				"kind": "user",
				"methods": {},
				"version": 1
			}
		}
	}
}